:020000040800F2
:1000000000000320712A0008810300088303000810
:10001000850300088703000889030008000000002A
:10002000000000000000000000000000A127000800
:100030008B03000800000000412800088D03000821
:10004000C12A0008C12A0008C12A0008C12A0008E4
:10005000C12A0008C12A0008C12A0008C12A0008D4
:10006000C12A0008C12A0008C12A0008C12A0008C4
:10007000C12A0008C12A0008C12A0008C12A0008B4
:10008000C12A0008C12A0008C12A0008C12A0008A4
:10009000C12A0008C12A0008C12A0008C12A000894
:1000A000C12A0008C12A0008C12A0008C12A000884
:1000B000C12A0008C12A0008C12A0008C12A000874
:1000C000C12A0008C12A0008C12A0008C12A000864
:1000D000C12A0008C12A0008C12A0008C12A000854
:1000E000C12A0008C12A0008C12A0008C12A000844
:1000F000C12A0008C12A0008C12A0008C12A000834
:10010000C12A0008C12A0008C12A0008C12A000823
:10011000C12A0008C12A0008C12A0008C12A000813
:10012000C12A0008C12A0008C12A0008C12A000803
:10013000C12A0008C12A0008C12A0008C12A0008F3
:10014000C12A0008C12A0008C12A0008C12A0008E3
:10015000C12A0008C12A0008C12A0008C12A0008D3
:10016000C12A0008C12A0008C12A0008C12A0008C3
:10017000C12A0008C12A0008C12A0008C12A0008B3
:10018000C12A0008C12A0008C12A0008C12A0008A3
:10019000C12A0008C12A0008C12A0008C12A000893
:0C01A000C12A0008C12A0008C12A00087A
:1001B00053B94AB9002908BF00281CBF4FF0FF31CE
:1001C0004FF0FF3000F00CB8ADF1080C6DE904CE33
:1001D00002F0B2FCDDF804E0DDE9022304B0704770
:1001E000704700BF0348044B834202D0034B03B166
:1001F0001847704710000020100000200000000089
:100200000548064B1B1AD90F01EBA301491002D078
:10021000034B03B118477047100000201000002066
:100220000000000010B5064C237843B9FFF7DAFF51
:10023000044B13B10448AFF300800123237010BDB9
:100240001000002000000000582E000808B5054BE3
:100250001BB105490548AFF30080BDE80840FFF732
:10026000CFBF00BF0000000014000020582E00087F
:1002700000B587B001A9002301934B608B60CB6070
:100280000B610093084B1A6B42F002021A631B6B5E
:1002900003F002030093009B01230193034800F045
:1002A000A5FB07B000BD00BF0038024000040240BB
:1002B00008B5012002F0D7F8FBE772B6FEE70000B0
:1002C00010B594B008AC30220021204602F0F9FBB2
:1002D0000023039304930593069307930193194A0C
:1002E000116C41F080511164126C02F08052019245
:1002F000019A029314490A6822F4404242F480426F
:100300000A600A6802F440420292029A02220892AB
:1003100001220B9210220C920E93204600F064F8FA
:1003200060B90F230393014604900590069007904F
:1003300003A800F0ABFA18B914B010BDFFF7BDFF69
:10034000FFF7BBFF003802400070004008B500F026
:10035000F1FCFFF7B5FFFFF78BFF01F0F3FF054A54
:100360000021054802F01EF8044B186001F0FCFF64
:10037000FEE700BF902E0008B10200082C0000200C
:10038000FEE7FEE7FEE7FEE7FEE7704708B500F090
:10039000EBFC01F049FD012800D108BD02F082FA12
:1003A000FBE7000000B583B0002200920D4B596CB2
:1003B00041F480415964596C01F4804100910099E5
:1003C0000192196C41F0805119641B6C03F0805349
:1003D0000193019B0F216FF0010000F061FC03B05D
:1003E00000BD00BF00380240002800F0E28170B577
:1003F00082B00446036813F0010F3BD09B4B9B680F
:1004000003F00C03042B2CD0984B9B6803F00C03D7
:10041000082B21D06368B3F5803F4FD0B3F5A02FF0
:1004200052D0924B1A6822F480321A601A6822F471
:1004300080221A606368002B50D000F0A1FC0546B2
:100440008A4B1B6813F4003F14D100F099FC401B49
:100450006428F5D90320B3E1844B5B6813F4800F63
:10046000D8D0824B1B6813F4003F03D06368002B85
:1004700000F0A181236813F0020F54D07B4B9B68DE
:1004800013F00C0F3ED0794B9B6803F00C03082B44
:1004900033D0E368002B68D0754B01221A6000F05E
:1004A0006FFC0546714B1B6813F0020F54D100F02E
:1004B00067FC401B0228F5D9032081E16B4A1368D1
:1004C00043F480331360B5E7684B1A6842F4802226
:1004D0001A601A6842F480321A60ABE700F050FCF0
:1004E0000546624B1B6813F4003FC3D000F048FC84
:1004F000401B6428F5D9032062E15C4B5B6813F470
:10050000800FC6D1594B1B6813F0020F03D0E3686C
:10051000012B40F05281554A136823F0F8032169FA
:1005200043EAC1031360236813F0080F42D06369E4
:100530006BB34F4B0122C3F8802E00F021FC05461F
:100540004A4B5B6F13F0020F34D100F019FC401BD3
:100550000228F5D9032033E1444A136823F0F80355
:10056000216943EAC1031360DDE7414B00221A60B1
:1005700000F006FC05463D4B1B6813F0020FD2D07D
:1005800000F0FEFB401B0228F5D9032018E1384B90
:100590000022C3F8802E00F0F3FB0546334B5B6F5F
:1005A00013F0020F06D000F0EBFB401B0228F5D938
:1005B000032005E1236813F0040F79D02B4B1B6C4B
:1005C00013F0805F34D100230193284B1A6C42F062
:1005D00080521A641B6C03F080530193019B01232A
:1005E0001E46244B1B6813F4807F24D0A368012B84
:1005F00035D0052B40D01D4B1A6F22F001021A672F
:100600001A6F22F004021A67A368002B3ED000F094
:10061000B7FB0546154B1B6F13F0020F47D100F0D7
:10062000AFFB401B41F288339842F3D90320C7E067
:1006300000231E46D5E70F4A136843F48073136006
:1006400000F09EFB05460B4B1B6813F4807FCDD159
:1006500000F096FB401B0228F5D90320B0E0034AC6
:10066000136F43F001031367CEE700BF0038024069
:100670000000474200700040584B1A6F42F00402DD
:100680001A671A6F42F001021A67BDE700F078FBA3
:100690000546524B1B6F13F0020F08D000F070FBA1
:1006A000401B41F288339842F3D9032088E0EEB929
:1006B000A369002B00F08380484A926802F00C0284
:1006C000082A51D0022B17D0454B00221A6600F0A1
:1006D00057FB0446414B1B6813F0007F42D000F0EB
:1006E0004FFB001B0228F5D9032069E03B4A136C3D
:1006F00023F080531364DBE7394B00221A6600F0C5
:100700003FFB0546354B1B6813F0007F06D000F019
:1007100037FB401B0228F5D9032051E0E369226A28
:100720001343626A43EA8213A26A5208013A43EA17
:100730000243E26A43EA0263284A5360284B0122DB
:100740001A6600F01DFB0446244B1B6813F0007F63
:1007500006D100F015FB001B0228F5D903202FE07D
:1007600000202DE000202BE0012B2BD01B4B5B68E1
:1007700003F48001E269914226D103F03F02216A2D
:100780008A4223D1616A47F6C0721A40B2EB811FD8
:100790001ED103F44031A26A5208013AB1EB024F74
:1007A00018D103F07063E26AB3EB026F14D100203A
:1007B00006E001207047012002E0012000E0184619
:1007C00002B070BD0120FBE70120F9E70120F7E747
:1007D0000120F5E70120F3E70120F1E700380240AE
:1007E0000000474208B5264B9B6803F00C03042B1E
:1007F00041D0082B41D1224B5A6802F03F025B687E
:1008000013F4800F12D01E4B5968C1F388111D4894
:100810000023A1FB0001FFF7CBFC194B5B68C3F37E
:10082000014301335B00B0FBF3F008BD144B586883
:10083000C0F388104FEA401CBCEB000C6EEB0E0EB0
:100840004FEA8E1343EA9C634FEA8C11B1EB0C0123
:1008500063EB0E03DB0043EA5173C90011EB000C9C
:1008600043F10003990200234FEA8C2041EA9C5196
:10087000FFF79EFCD1E70348D7E70348D5E700BF61
:100880000038024040787D010024F400002800F088
:100890009B8070B50D4604464F4B1B6803F00F0359
:1008A0008B4208D2CBB24C4A1370136803F00F038B
:1008B0008B4240F08B80236813F0020F17D013F0A7
:1008C000040F04D0454A936843F4E05393602368CF
:1008D00013F0080F04D0414A936843F460439360D7
:1008E0003E4A936823F0F003A1680B4393602368AA
:1008F00013F0010F32D06368012B21D09A1E012A18
:1009000025D9364A126812F0020F61D033498A683D
:1009100022F0030213438B6000F032FA06462F4B9D
:100920009B6803F00C036268B3EB820F16D000F0F3
:1009300027FA801B41F288339842F0D9032042E025
:10094000264A126812F4003FE0D101203BE0234A1E
:10095000126812F0007FD9D1012034E01E4B1B68D1
:1009600003F00F03AB4207D9EAB21B4B1A701B68A6
:1009700003F00F03AB422DD1236813F0040F06D010
:10098000164A936823F4E053E1680B4393602368AD
:1009900013F0080F07D0114A936823F460432169CC
:1009A00043EAC1039360FFF71DFF0C4B9B68C3F341
:1009B00003130B4AD35CD8400A4B18600A4B1868E3
:1009C00000F092F9002070BD012070470120FAE785
:1009D0000120F8E70120F6E7003C02400038024021
:1009E000B42E0008080000200400002070B582B07A
:1009F0008E46002369E085684FEA430C032101FA23
:100A00000CF125EA0105DEF80C1001FA0CF129437E
:100A10008160416821EA0201DEF80420C2F300127D
:100A20009A400A43426065E0D908083150F8212015
:100A300003F00705AD004FF00F0C0CFA05FC22EA9D
:100A40000C0CDEF81020AA4042EA0C0240F82120EB
:100A500067E0092200E0002202FA0CF22A43023188
:100A6000664D45F82120664A9168E24321EA040573
:100A7000DEF8046016F4801F01D044EA01056049E5
:100A80008D60C96802EA0105DEF8046016F4001FF3
:100A900001D044EA01055A49CD60496802EA0105DE
:100AA000DEF8046016F4003F01D044EA0105544921
:100AB0004D6009680A40DEF8045015F4803F01D00B
:100AC00044EA01024E490A6001330F2B00F2938081
:100AD00001229A40DEF8001001EA020432EA010124
:100AE000F2D1DEF8041001F0030C0CF1FF3CBCF174
:100AF000010F80D9DEF8042002F00302032A0AD095
:100B0000C1685D000322AA4021EA0201DEF8082044
:100B1000AA400A43C260DEF8042002F00302022A5F
:100B200082D001684FEA430C032202FA0CF221EA58
:100B30000201DEF8042002F0030202FA0CF20A437A
:100B40000260DEF8042012F4403FBDD00022019282
:100B50002C4A516C41F480415164526C02F4804241
:100B60000192019A99088D1C244A52F8255003F0ED
:100B7000030C4FEA8C0C0F2202FA0CF225EA020554
:100B8000214A90423FF467AF02F58062904222D042
:100B900002F58062904220D002F5806290421ED021
:100BA00002F5806290421CD002F5806290421AD019
:100BB00002F58062904218D002F58062904216D011
:100BC00002F58062904214D002F5806290423FF4B8
:100BD00040AF0A2240E701223EE702223CE703221F
:100BE0003AE7042238E7052236E7062234E70722EF
:100BF00032E7082230E702B070BD00BF0038014084
:100C0000003C01400038024000000240002808DBA0
:100C10000901C9B200F1604000F5614080F800139D
:100C2000704700F00F000901C9B2014B1954704719
:100C300014ED00E000B500F00700A0F1030CBCF1DA
:100C4000040F07D8C0F1070E0430062806D84FF06D
:100C5000000C03E04FF0040E4FF0000C4FF0FF3398
:100C600003FA0EF021EA000101FA0CF103FA0CF389
:100C700022EA030241EA020000BD0000074AD368ED
:100C800023F4E0631B041B0C000200F4E060034348
:100C900043F0BF6343F40033D360704700ED00E0DE
:100CA00010B50446054BD868C0F30220FFF7C2FF19
:100CB00001462046FFF7AAFF10BD00BF00ED00E08F
:100CC0000138B0F1807F0BD24FF0E0235861054A24
:100CD000F02182F823100020986107221A617047E2
:100CE0000120704700ED00E010B504460E4B186877
:100CF0000E4B1A784FF47A73B3FBF2F3B0FBF3F0B8
:100D0000FFF7DEFF68B90F2C01D901200AE0024687
:100D100021464FF0FF30FFF7C3FF054B1C6000205A
:100D200000E0012010BD00BF0800002000000020EE
:100D30000400002008B50B4B1A6842F400721A60D8
:100D40001A6842F480621A601A6842F480721A606B
:100D50000320FFF793FF0F20FFF7C6FFFFF722FBEB
:100D6000002008BD003C0240034A1168034B1B7879
:100D70000B441360704700BF3000002000000020CB
:100D8000014B1868704700BF30000020034AD2F8BA
:100D9000883043F47003C2F88830704700ED00E0FB
:100DA00000F1080343604FF0FF328260C3600361CB
:100DB00000230360704700230361704743684B6062
:100DC0009A688A6051609960086103680133036022
:100DD000704710B402460846D1F800C0BCF1FF3F8E
:100DE00011D002F1080319465B681C686445FAD902
:100DF0004B6843609860816048600261136801330A
:100E0000136010BC70471169F2E70369416882689A
:100E10008A60416851605A68824206D000220261AD
:100E20001A68013A1A601868704782685A60F5E7D4
:100E300010B5044601F0C6FCA26BE36B9A4204D0E5
:100E4000002401F0E1FC204610BD0124F9E710B5B3
:100E5000044601F0B7FCA36B2BB901231C4601F03B
:100E6000D3FC204610BD00231C46F8E770B50446AD
:100E70001646856B026C5AB903681BB10020013518
:100E8000A56370BD806800F0DFFF0023A360F6E774
:100E90006EB9406801F042FE6368226C13446360DF
:100EA000A268934219D3236863603046E7E7C068BD
:100EB00001F034FEE368226C51429B1AE360226821
:100EC000934202D2A3680B44E360022E01D00020BB
:100ED000D5E725B1013D0020D1E73046CFE72846D0
:100EE000CDE70346026C6AB110B50846D9681144D3
:100EF000D9609C68A14201D31968D960D96801F012
:100F00000DFE10BD704738B5054601F05BFC95F845
:100F1000454064B201E0013C64B2002C0ADD6B6A1A
:100F200043B105F1240000F0E1FE0028F3D000F009
:100F300075FFF0E7FF2385F8453001F065FC01F00F
:100F400041FC95F8444064B201E0013C64B2002CDD
:100F50000ADD2B6943B105F1100000F0C7FE00283F
:100F6000F3D000F05BFFF0E7FF2385F8443001F099
:100F70004BFC38BD38B5E0B10D46044601F022FC0B
:100F80002368E26B216C01FB0230A0600020A063AB
:100F90006360013A02FB0133E360FF2384F84430CD
:100FA00084F84530FDB9236963B901F02DFC0120B7
:100FB00038BD4FF0500383F31188BFF36F8FBFF339
:100FC0004F8FFEE704F1100000F090FE0028ECD0F7
:100FD0004FF0E0234FF08052C3F8042DBFF34F8F42
:100FE000BFF36F8FE1E704F11000FFF7D9FE04F1C2
:100FF0002400FFF7D5FED8E738B51D46049C0B4604
:1010000049B92460E063236401212046FFF7B2FF61
:1010100084F84C5038BD2260F4E740B94FF05003DB
:1010200083F31188BFF36F8FBFF34F8FFEE710B5C7
:1010300084B01C46844653B192B189B94FF0500335
:1010400083F31188BFF36F8FBFF34F8FFEE74FF02D
:10105000500383F31188BFF36F8FBFF34F8FFEE709
:101060006AB150230393039B502B13D04FF05003CE
:1010700083F31188BFF36F8FBFF34F8FFEE7002913
:10108000EFD04FF0500383F31188BFF36F8FBFF39E
:101090004F8FFEE7039B012384F8463000949DF8B0
:1010A00018306046FFF7A8FF204604B010BDF0B529
:1010B00085B0019288B10F461D460446B1B1022D9C
:1010C00020D1E36B012B1DD04FF0500383F3118827
:1010D000BFF36F8FBFF34F8FFEE74FF0500383F3E3
:1010E0001188BFF36F8FBFF34F8FFEE7036C002BA8
:1010F000E5D04FF0500383F31188BFF36F8FBFF338
:101100004F8FFEE700F090FE064658B9019B002B7A
:1011100048D04FF0500383F31188BFF36F8FBFF3B4
:101120004F8FFEE700263DE02A4639462046FFF76E
:101130009DFE636A7BB948B14FF0E0234FF08052C7
:10114000C3F8042DBFF34F8FBFF36F8F01F05CFB2B
:10115000012005B0F0BD04F1240000F0C7FD002817
:10116000F4D04FF0E0234FF08052C3F8042DBFF3CA
:101170004F8FBFF36F8FE9E701F046FB0020E8E7F0
:1011800002A800F0FBFD012619E0002384F844309A
:1011900021E0002384F8453023E02046FFF7B3FE2A
:1011A00000F080FC01F00EFBA26BE36B9A42BBD314
:1011B000022DB9D0019B002BDED0002EE0D001F033
:1011C00023FB00F0CFFB01F0FDFA94F8442052B26B
:1011D000B2F1FF3FD9D094F8452052B2B2F1FF3FAF
:1011E000D7D001F011FB01A902A800F0D3FDD8B9B6
:1011F0002046FFF71DFE0028CFD0019904F1100012
:1012000000F03EFD2046FFF77EFE00F04BFC00287C
:10121000C8D14FF0E0234FF08052C3F8042DBFF344
:101220004F8FBFF36F8FBDE72046FFF76CFE00F0D6
:1012300039FC00208DE72DE9F84390B10F46904628
:101240001E460446B1B1022E20D1E36B012B1DD006
:101250004FF0500383F31188BFF36F8FBFF34F8FAD
:10126000FEE74FF0500383F31188BFF36F8FBFF396
:101270004F8FFEE7036C002BE5D04FF0500383F354
:101280001188BFF36F8FBFF34F8FFEE701F0C2FBF2
:10129000EFF311834FF0500282F31188BFF36F8F89
:1012A000BFF34F8F9946A26BE36B9A4206D3022E8F
:1012B00004D0002089F31188BDE8F88394F8453004
:1012C0005DB2A36B324639462046FFF7CFFDB5F13C
:1012D000FF3F06D02B4601335BB284F84530012036
:1012E000E8E7636A0BB90120E4E704F1240000F0A9
:1012F000FDFC28B143462BB10120C8F80000D9E716
:101300000120D7E70120D5E7F0B585B0019290B173
:101310000F460446C1B100F087FD064600BB019BA5
:10132000002B5ED04FF0500383F31188BFF36F8F13
:10133000BFF34F8FFEE74FF0500383F31188BFF3E5
:101340006F8FBFF34F8FFEE7036C002BE3D04FF09E
:10135000500383F31188BFF36F8FBFF34F8FFEE706
:1013600000263EE039462046FFF7BBFD013DA56360
:10137000236923B901F048FA012005B0F0BD04F15A
:10138000100000F0B3FC0028F4D04FF0E0234FF041
:101390008052C3F8042DBFF34F8FBFF36F8FE9E77F
:1013A00001F032FA2846E8E702A800F0E7FC01263F
:1013B00021E0002384F8443029E0002384F84530FC
:1013C0002BE02046FFF79FFD00F06CFB09E0204674
:1013D000FFF799FD00F066FB2046FFF738FD002877
:1013E0003FD101F0EFF9A56B002DBBD1019B002B84
:1013F000D6D0002ED8D001F007FA00F0B3FA01F0F1
:10140000E1F994F844305BB2B3F1FF3FD1D094F8E6
:1014100045305BB2B3F1FF3FCFD001F0F5F901A940
:1014200002A800F0B7FC0028D1D12046FFF70FFD3D
:101430000028C6D0019904F1240000F021FC2046C8
:10144000FFF761FD00F02EFB0028CAD14FF0E0232A
:101450004FF08052C3F8042DBFF34F8FBFF36F8F4F
:10146000BFE7002089E700000023072B0CD8074ABC
:1014700052F833200AB10133F7E7044A42F8331037
:1014800002EBC30250607047704700BF3400002079
:1014900070B504460D46164601F094F994F84430B0
:1014A0005BB2B3F1FF3F0DD094F845305BB2B3F1BE
:1014B000FF3F0BD001F0A8F9A36B5BB12046FFF70B
:1014C00022FD70BD002384F84430EDE7002384F84A
:1014D0004530EFE73246294604F1240000F0E8FBEE
:1014E000ECE70000084B1B681B6823B9074B4FF063
:1014F000FF321A607047044B1B68DB68DB685A6870
:10150000024B1A60704700BFE40000207C000020FE
:101510002DE9F84380460D4617469946089E0A9CD9
:101520009200A521206B01F0CCFA236B07F18042D9
:10153000013A03EB820323F0070795B34FF0000C49
:10154000BCF10F0F09D815F80C3004EB0C0282F82F
:10155000343013B10CF1010CF2E7002384F843306E
:10156000372E00D93726E662E66400252565201D62
:10157000FFF721FC04F11800FFF71DFC2461C6F100
:101580003806A6616462656584F858504A4641464B
:10159000384601F0EDF82060099B03B11C60BDE8FE
:1015A000F883002384F83430DAE7000038B50024EB
:1015B00007E004EB84000F4B03EB8000FFF7F0FB28
:1015C0000134372CF5D90C4D2846FFF7E9FB0B4CBD
:1015D0002046FFF7E5FB0A48FFF7E2FB0948FFF763
:1015E000DFFB0948FFF7DCFB084B1D60084B1C6064
:1015F00038BD00BF10010020FC000020E8000020E2
:10160000CC000020B8000020A0000020E400002052
:10161000E000002010B5044601F0D4F8224A136817
:1016200001331360214B1B685BB1214B1B686BB905
:101630001E4B1B68DA6AE36A9A4207D81B4B1C6090
:1016400004E01A4B1C601368012B29D0194A136857
:10165000013313606364E06A174B1B68984201D939
:10166000154B186000EB8000211D144B03EB80002C
:10167000FFF7A4FB01F0C8F80D4B1B687BB10B4BC7
:101680001B68DA6AE36A9A4209D24FF0E0234FF00E
:101690008052C3F8042DBFF34F8FBFF36F8F10BD7F
:1016A000FFF784FFD2E700BF9C00002070050020F8
:1016B00090000020800000209400002010010020F5
:1016C00010B5044690F8593063B1012B11D0022BAC
:1016D0000ED04FF0500383F31188BFF36F8FBFF329
:1016E0004F8FFEE7006B00F0C5FF204600F0C2FF01
:1016F00010BD00F0BFFFFBE70F4B1B68D3B110B567
:1017000001F060F80D4BDB68DC68201DFFF77DFB06
:101710000B4A1368013B1360074A1368013B1360CF
:1017200001F072F82046FFF7CBFF034B1B68002B3C
:10173000E6D110BD704700BFB4000020B800002003
:101740009C00002008B5FFF7D7FF074B1B68012B53
:10175000F9D94FF0E0234FF08052C3F8042DBFF3C6
:101760004F8FBFF36F8FEEE71001002070B5044676
:101770000E46174B1D68174B18680430FFF745FBE2
:10178000B4F1FF3F0DD02C44124B1B685C60A542A6
:1017900010D9114B18680F4B19680431FFF719FB6A
:1017A00070BD002EEFD00B4B196804310B48FFF7CA
:1017B00005FBF5E70A4B1868064B19680431FFF77B
:1017C00008FB084B1B68A342EAD9064B1C60E7E7FD
:1017D0009800002070050020E0000020A0000020FC
:1017E000E40000207C00002010B586B08C460999EA
:1017F00079B10A99B1B15C21049104995C291AD09C
:101800004FF0500383F31188BFF36F8FBFF34F8FF7
:10181000FEE74FF0500383F31188BFF36F8FBFF3E0
:101820004F8FFEE74FF0500383F31188BFF36F8FA4
:10183000BFF34F8FFEE7DDF810E00A99099C0C63B7
:1018400002210A9C84F8591000210391029405A9F1
:101850000191089900916146FFF75AFE0A98FFF737
:10186000D9FE059806B010BD2DE9F04385B081463C
:10187000884614461F46900000F07AFE00B30646E4
:101880005C2000F075FE0546A0B12E63002380F8B1
:101890005930039302900D9B01930C9B00933B46A0
:1018A000224641464846FFF733FE2846FFF7B2FE80
:1018B000012007E0304600F0DDFE4FF0FF3001E090
:1018C0004FF0FF3005B0BDE8F083000010B588B0E0
:1018D00000240594069407AA06A905A800F0D0FDE7
:1018E000059B0293069B019300942346079A174990
:1018F0001748FFF779FF174B186018B100F058FB35
:10190000012804D0B0F1FF3F16D008B010BD4FF051
:10191000500383F31188BFF36F8FBFF34F8F0E4BCC
:101920004FF0FF321A600D4B01221A600C4B00225F
:101930001A6000F0E1FFE8E74FF0500383F31188ED
:10194000BFF36F8FBFF34F8FFEE700BF782E000805
:1019500045170008780000207C000020900000203F
:1019600098000020024A136801331360704700BFDB
:1019700074000020014B1868704700BF98000020D9
:10198000F8B53D4B1B68002B6ED13C4B1D680135F3
:101990001D60C5B93A4B1B681B6843B14FF050033B
:1019A00083F31188BFF36F8FBFF34F8FFEE7344A85
:1019B0001168344B186810601960334A136801339A
:1019C0001360FFF78FFD314B1B68AB4241D90023F9
:1019D0001F462F4B1B68DB6A03EB83039B002D4ADA
:1019E000D358012B01D901231F462B4B1B68002B19
:1019F00040D001231F463DE001231F46204B1B68BA
:101A00001B684BB31E4B1B68DB68DC6863689D4238
:101A100027D3261D3046FFF7F8F9A36A1BB104F15E
:101A20001800FFF7F2F9E06A1C4B1B68984201D9D5
:101A30001A4B186000EB80003146164B03EB800018
:101A4000FFF7BCF9E26A124B1B68DB6A9A42D3D2F9
:101A5000D4E700231F46D1E70C4B4FF0FF321A604A
:101A6000B7E70A4A1360B4E70D4A136801331360FD
:101A700000231F463846F8BD74000020980000205F
:101A8000E4000020E0000020840000207C00002012
:101A90007005002010010020880000209400002024
:101AA0008C00002038B5354B1B6843B94FF050030C
:101AB00083F31188BFF36F8FBFF34F8FFEE700F002
:101AC00081FE2E4B1A68013A1A601B68002B4FD119
:101AD0002B4B1B680BB91C464BE00024294B1B68A1
:101AE0001BB3284BDB68DC6804F11800FFF78DF9A5
:101AF000251D2846FFF789F9E06A234B1B689842A9
:101B000001D9214B186000EB800029461F4B03EBE5
:101B10008000FFF753F9E26A1D4B1B68DB6A9A42AB
:101B2000DCD31C4B01221A60D8E70CB1FFF7DAFCBA
:101B3000194B1C6884B9174B1C68D4B14FF0E023D3
:101B40004FF08052C3F8042DBFF34F8FBFF36F8F58
:101B500001240EE0013C07D0FFF712FF0028F9D066
:101B60000C4B01221A60F5E70B4B00221A60E2E7EA
:101B7000002400F049FE204638BD00BF740000205C
:101B80009C000020CC0000209400002010010020C8
:101B900070050020880000208C00002010B5A8B13E
:101BA0000446104B1B6843B14FF0500383F3118878
:101BB000BFF36F8FBFF34F8FFEE7FFF7D3FE002118
:101BC0002046FFF7D3FDFFF76DFF48B94FF0E02344
:101BD0004FF08052C3F8042DBFF34F8FBFF36F8FC8
:101BE00010BD00BF74000020204B1B681BB1204BB0
:101BF00001221A6070471E4B00221A601D4B1B68A1
:101C000003EB830292001C498A585AB90BB1013B7D
:101C1000F6E74FF0500383F31188BFF36F8FBFF3E4
:101C20004F8FFEE7084603EB830201EB8202516807
:101C30004968516003EB83029200083202449142EA
:101C40000BD003EB83010C4A02EB81025268D1688E
:101C50000A4A1160074A13607047486803EB830122
:101C6000054A02EB81025060EBE700BF74000020E0
:101C70008800002094000020100100207005002042
:101C800058B110B50C46094A11681831FFF7A1F890
:101C900001212046FFF76AFD10BD4FF0500383F38A
:101CA0001188BFF36F8FBFF34F8FFEE770050020E1
:101CB00038B578B10D4614460B4A11681831FFF754
:101CC0007DF814B14FF0FF331D4621462846FFF73B
:101CD0004DFD38BD4FF0500383F31188BFF36F8F74
:101CE000BFF34F8FFEE700BF7005002038B5C36813
:101CF000DC6834B304F118031D461846FFF785F875
:101D0000184B1B6833BB231D1D461846FFF77DF893
:101D1000E06A154B1B68984201D9134B186000EB21
:101D200080002946114B03EB8000FFF747F8E26A79
:101D30000F4B1B68DB6A9A4211D901200D4B1860CA
:101D400038BD4FF0500383F31188BFF36F8FBFF39B
:101D50004F8FFEE729460848FFF730F8E7E70020F5
:101D6000EEE700BF74000020940000201001002066
:101D70007005002088000020CC000020034B1B6869
:101D80000360034B1B684360704700BF8400002062
:101D900098000020E0B170B50C46064609B300F08B
:101DA00011FD1C4B19687368C81A2268B2F1FF3F15
:101DB00028D03568DFF860C0DCF800C0654501D088
:101DC0008B4224D9824215D80023236001241AE0D3
:101DD0004FF0500383F31188BFF36F8FBFF34F8F22
:101DE000FEE74FF0500383F31188BFF36F8FBFF30B
:101DF0004F8FFEE75B1A134423603046FFF7BEFFA8
:101E0000002400E0002400F0FFFC204670BD012407
:101E1000F9E700BF9800002084000020014B012258
:101E20001A60704788000020054B1B6833B1054BD2
:101E30001B680BB1002070470220704701207047DB
:101E4000900000207400002000283ED038B50446E1
:101E50001E4B1B68834208D04FF0500383F3118858
:101E6000BFF36F8FBFF34F8FFEE7036D43B94FF0A2
:101E7000500383F31188BFF36F8FBFF34F8FFEE7DB
:101E8000013B0365C16AC26C91421CD00BB10020BA
:101E900038BD031D1D461846FEF7B7FFE06CE06233
:101EA000C0F13803A3610A4B1B68984201D9084B63
:101EB000186000EB80002946064B03EB8000FEF71C
:101EC0007DFF0120E4E70020E2E770477005002075
:101ED0009400002010010020064B1A6813682BB9EB
:101EE0000123036023B9D368186870470023F8E71B
:101EF000002070477406002008B5416000619142DF
:101F00000CD8D21A83699A4201D3012008BD011D61
:101F1000094B1868FEF75DFF0020F7E79A4201D2EF
:101F2000994206D2011D054B1868FEF752FF0020AA
:101F3000ECE70120EAE700BF7006002074060020ED
:101F400000B583B000F03EFC114B1B681BB100F0E4
:101F50005BFC03B000BD0F48FEF722FF0E48FEF702
:101F60001FFF0E4B0B4A1A600D4B0B4A1A600023E1
:101F700000930C4B0C4A10210A20FFF74EF8044B3B
:101F800018600028E3D00949FFF76EFADFE700BFC9
:101F90006C0600208C0600207806002074060020C5
:101FA0007006002074050020C4050020802E000863
:101FB00010B588B0FFF7C4FF124B1B68CBB10024EB
:101FC0000594069407AA06A905A800F065FA059BE2
:101FD0000293069B0193022300932346079A0A4922
:101FE0000A48FFF701FC0A4B186010B1012008B045
:101FF00010BD4FF0500383F31188BFF36F8FBFF311
:102000004F8FFEE76C060020882E00082D23000865
:1020100068060020B8B19C4603461748006850B3D4
:1020200000B585B000910192029305291CDCFFF7F1
:10203000FBFE022810D000231A4669460E480068AD
:10204000FFF735F815E04FF0500383F31188BFF325
:102050006F8FBFF34F8FFEE70023069A694606484D
:102060000068FFF724F804E0002362466946FFF7A2
:10207000E2F805B000BD70476C06002070B582B074
:102080001B4B1B681A6862B3DB681E68DC68251D81
:102090002846FEF7BAFE236A2046984794F828306F
:1020A00013F0040FECD0A36933449E4207D263605F
:1020B000246129460E4B1868FEF78BFEE0E70021ED
:1020C00000910B4632462046FFF7A4FF0028D7D1E7
:1020D0004FF0500383F31188BFF36F8FBFF34F8F1F
:1020E000FEE7044A106802490860136002B070BD40
:1020F000740600207006002038B50546FFF73AFC4C
:102100000446074B1B68834205D800232B60044B11
:102110001C60204638BDFFF7B1FF01232B60F6E7B6
:102120006406002070B582B005460E46174909685E
:10213000C968CC68201DFEF768FE94F828C01CF022
:10214000040F08D12CF0010C84F828C0236A204623
:10215000984702B070BDA1692B46324629442046FB
:10216000FFF7CAFE0028F1D0002100910B462A4655
:102170002046FFF74FFF0028E8D14FF0500383F3CC
:102180001188BFF36F8FBFF34F8FFEE774060020F7
:1021900070B582B005460C46FFF7E4FB01A8FFF7D7
:1021A000ABFF019B3BBB0646E4B9A84213D22246D3
:1021B000A91B134B1868FFF76BF9FFF773FCE0B925
:1021C0004FF0E0234FF08052C3F8042DBFF34F8F40
:1021D000BFF36F8F11E0FFF765FC31462846FFF72C
:1021E000A1FF0AE0074A1268126812B901231C46CF
:1021F000DDE71C46DBE7FFF755FC02B070BD00BF12
:102200006C0600207006002010B588B002E0049B28
:10221000002B0FDA002204A9434B1868FFF774F86B
:1022200000287ED0049B002BF1DA07990698059BC5
:102230009847ECE7069C636913B1201DFEF7E5FDA6
:1022400003A8FFF759FF049B052B5CD041DC032B4F
:1022500049D02CDC022BDDD894F8283043F0010360
:1022600084F82830059BA169024619442046FFF7EF
:1022700043FE0028CED0236A2046984794F82830A1
:1022800013F0040FC6D0A269002100910B460598F7
:1022900002442046FFF7BEFE0028BBD14FF050039A
:1022A00083F31188BFF36F8FBFF34F8FFEE7042BCB
:1022B000B0D194F8283043F0010384F82830059910
:1022C000A161B9B10346024601442046FFF714FE5E
:1022D000A0E7082B07D003DC063B012BBCD999E70C
:1022E000092BE6D096E794F8283023F0010384F810
:1022F00028308FE74FF0500383F31188BFF36F8FBF
:10230000BFF34F8FFEE794F8283013F0020F04D08C
:1023100023F0010384F828307CE7204600F0AAF976
:1023200078E708B010BD00BF6C06002000B583B090
:1023300001A8FFF7D1FD0199FFF72AFFFFF764FF1E
:10234000F6E70000EFF305832BB9064B186828B9B0
:1023500001221A6070476FF0050070474FF0FF30A0
:10236000704700BF580D002008B5EFF3058373B91F
:102370000A4B1B68012B0DD1094B4FF00002DA7795
:10238000064B02221A60FFF7A1FA002008BD6FF089
:102390000500FBE74FF0FF30F8E700BF580D0020C5
:1023A00000ED00E070B586B000230593EFF30583E0
:1023B00043BB38B3002A3DD0D2F800E093692BB17B
:1023C0001D46013B372B03D900201CE018231D4676
:1023D000536813F0010F44D1D2F814C0BCF1000FC0
:1023E00013D04FEA9C031E4693683BB1D4685B2C24
:1023F00004D9146914B1BCF1000F11D143B14FF0ED
:10240000FF330BB3059806B070BD80231E46EBE783
:10241000D368B3B91369002BF3D04FF0FF33F0E763
:102420000293019400950B4632467146FFF7DCF9A2
:102430000590E7E796461346182215468022164671
:10244000DFE74FF0FF33DCE705AB019300950B4668
:10245000B2B27146FFF708FA0128D3D000230593E2
:10246000D0E70020CFE708B5EFF305832BB900B91B
:1024700008BDFFF793FB0020FAE76FF00500F7E7D0
:10248000034B0360034B0B6080231360704700BF56
:10249000FC0C0020FC0A0020034B0360034B0B6084
:1024A0004FF4807313607047A00A0020A00600203C
:1024B000124A12F0070F1ED0D11D21F00701C1F5FD
:1024C000705313440A460E480260002141601344D1
:1024D000083B23F007030B48036059601960991A01
:1024E00051601360084B1960084B1960084B4FF09E
:1024F00000421A6070474FF47053E4E77C0D0020EF
:10250000740D0020700D0020680D00206C0D00205F
:102510005C0D0020144B1A461B688342FBD35168A4
:1025200002EB010C844509D0416800EB010C6345C6
:1025300009D00360904200D01060704740680144A9
:1025400051601046F0E7DFF824C0DCF800C06345B6
:1025500006D05B681944416013681B680360E9E7B3
:10256000C0F800C0E6E700BF740D0020700D002029
:1025700038B50446FFF7F6F9384B1B68B3B1384B52
:102580001B681C4250D1002C50D004F1080214F0FA
:10259000070F02D022F007020832002A55D0314B33
:1025A0001B68934253D330490C6804E0FFF780FF67
:1025B000E5E721461C466368934202D22368002B5C
:1025C000F7D1264B1B68A34243D00D68083523681A
:1025D0000B6063689B1A102B10D9A01810F0070F1E
:1025E00008D04FF0500383F31188BFF36F8FBFF310
:1025F0004F8FFEE743606260FFF78CFF6268194906
:102600000B689B1A0B60194909688B4201D2174964
:102610000B60134B1B681343636000232360144A51
:1026200013680133136002E0002500E02546FFF740
:1026300039FA15F0070F0ED04FF0500383F31188CD
:10264000BFF36F8FBFF34F8FFEE71546EFE700250F
:10265000EDE70025EBE7284638BD00BF700D0020F0
:102660005C0D00206C0D0020740D0020680D002012
:10267000640D0020002835D038B50446A0F10803C9
:102680001D4650F8043C184A1268134208D14FF016
:10269000500383F31188BFF36F8FBFF34F8FFEE7B3
:1026A00050F8081C41B14FF0500383F31188BFF379
:1026B0006F8FBFF34F8FFEE723EA020340F8043C1D
:1026C000FFF750F954F8041C084A13680B441360D0
:1026D0002846FFF71FFF064A136801331360FFF710
:1026E000E1F938BD704700BF5C0D00206C0D002083
:1026F000600D002082B0002301930D4B1B68B3F1E5
:10270000FF3F08D04FF0500383F31188BFF36F8F62
:10271000BFF34F8FFEE74FF0500383F31188BFF3F1
:102720006F8FBFF34F8F019B002BFCD002B070471F
:102730000C00002008480068006880F308884FF00B
:10274000000080F3148862B661B6BFF34F8FBFF309
:102750006F8F00DF00BF000008ED00E0DFF80C0025
:10276000016841F4700101607047000088ED00E0ED
:102770004FF0807340F8043C21F0010140F8081C40
:10278000054B40F80C3C40F8202C6FF0020340F859
:10279000243C4438704700BFF526000800000000C4
:1027A000074B19680868B0E8F04F80F30988BFF359
:1027B0006F8F4FF0000080F311887047AFF30080F7
:1027C000700500204FF0500383F31188BFF36F8F23
:1027D000BFF34F8F0B4A136801331360012B00D0F6
:1027E00070474FF0E023D3F8043D13F0FF0FF7D00C
:1027F0004FF0500383F31188BFF36F8FBFF34F8FF8
:10280000FEE700BF0C000020094B1B6843B94FF0E6
:10281000500383F31188BFF36F8FBFF34F8FFEE731
:10282000013B034A13600BB983F31188704700BF63
:102830000C0000200000000000000000000000006C
:10284000EFF30980BFF36F8F154B1A681EF0100F5E
:1028500008BF20ED108A20E9F04F106009B44FF056
:10286000500080F31188BFF34F8FBFF36F8FFFF7D6
:10287000BBF94FF0000080F3118809BC19680868A3
:10288000B0E8F04F1EF0100F08BFB0EC108A80F3D4
:102890000988BFF36F8F7047AFF30080AFF30080FC
:1028A0007005002008B54FF0500383F31188BFF383
:1028B0006F8FBFF34F8FFFF763F828B14FF0E0231E
:1028C0004FF08052C3F8042D002383F3118808BD14
:1028D0004FF0E022002313619361054B1B6805490B
:1028E000A1FB03139B09013B53610723136170474D
:1028F00008000020D34D62104FF0E023D3F8002DE4
:102900003E4B9A421CD04FF0E023D3F8002D3C4BB5
:102910009A421ED010B582B03A4B1A78D2B20192C8
:10292000FF221A701B78DBB28DF803309DF803305C
:1029300003F05003344A1370344B07221A601BE033
:102940004FF0500383F31188BFF36F8FBFF34F8FA6
:10295000FEE74FF0500383F31188BFF36F8FBFF38F
:102960004F8FFEE7294A1368013B13609DF803303F
:102970005B00DBB28DF803309DF8033013F0800F5D
:10298000F0D1224B1B68032B08D04FF0500383F388
:102990001188BFF36F8FBFF34F8FFEE71B021B4AF7
:1029A000136003F4E0631360019BDBB2154A1370FC
:1029B0004FF0E022D2F8203D43F47003C2F8203DEE
:1029C000D2F8203D43F070431446C2F8203DFFF793
:1029D0007FFF0F4B00221A60FFF7C0FED4F8343F90
:1029E00043F04043C4F8343FFFF7A4FEFFF7FCF880
:1029F000FFF780FE002002B010BD00BF71C20F4182
:102A000070C20F4100E400E0804900207C490020B2
:102A10000C000020EFF305830F2B0ED9114A9A5CAE
:102A2000114B1B789A4208D24FF0500383F3118860
:102A3000BFF36F8FBFF34F8FFEE74FF0E023D3F864
:102A40000C3D03F4E063094A1268934208D94FF041
:102A5000500383F31188BFF36F8FBFF34F8FFEE7EF
:102A6000704700BFF0E300E0804900207C4900206F
:102A7000DFF834D0FEF78AF90C480D490D4A0023DF
:102A800002E0D458C4500433C4188C42F9D30A4A23
:102A90000A4C002301E013600432A242FBD300F091
:102AA00019F8FDF753FC70470000032000000020D8
:102AB00010000020D42E00081000002084490020BF
:102AC000FEE702440346934200D1704703F8011B1E
:102AD000F9E7000070B50D4B0D4C00261D1BB6EB41
:102AE000A50F09D100F0B8F90A4C0B4B00261D1BAD
:102AF000B6EBA50F05D170BD54F8043B98470136DD
:102B0000EDE754F8043B98470136F1E7CC2E000876
:102B1000CC2E0008CC2E0008D02E00080A4491428A
:102B200000F1FF3300D1704710B511F8014B03F8E5
:102B3000014F9142F9D110BD2DE9F04782B0064610
:102B4000DDF828E00846B4460D46002B4ED18A42F7
:102B500014466DD9B2FA82F242B1C2F12003954017
:102B600026FA03F394401D4306FA02FC260CA7B292
:102B7000B5FBF6F14FEA1C4306FB115543EA05434A
:102B800001FB07F0984209D9E31801F1FF3580F005
:102B90000381984240F20081023923441B1A1FFA34
:102BA0008CFCB3FBF6F006FB10334CEA034C00FB45
:102BB00007F363450AD914EB0C0C00F1FF3580F0E4
:102BC000ED80634540F2EA80A444023840EA0140C7
:102BD000ACEB030C0021BEF1000F04D02CFA02F381
:102BE0000022CEE9003202B0BDE8F0878B4209D95D
:102BF000BEF1000F01D0CEE900610021084602B00D
:102C0000BDE8F087B3FA83F1174600294DD183421E
:102C100002D3B24200F20F81B6EB070C60EB030364
:102C200001201D46BEF1000FDDD0CEE900C5DAE778
:102C3000002A00F098801A46B4FA84F3002B40F082
:102C4000AF800B1B270CA6B20121B3FBF7F54FEAAF
:102C50001C4007FB153340EA034306FB05F8984583
:102C600007D9E31805F1FF3002D2984500F2E88059
:102C70000546A3EB08031FFA8CFCB3FBF7F007FB38
:102C800010334CEA034C06FB00F3634508D914EB00
:102C90000C0C00F1FF3602D2634500F2CE803046C4
:102CA000ACEB030C40EA054095E7C1F120058B40F1
:102CB00022FA05FC4CEA030C00FA01F426FA05F3AB
:102CC000E84002FA01F943EA04084FEA1C4206FA16
:102CD00001FAB0FBF2F71FFA8CF602FB17004FEA7D
:102CE000184444EA004407FB06F0A0420AD91CEB52
:102CF000040407F1FF3380F09C80A04240F29980E9
:102D0000023F6444241A1FFA88F3B4FBF2F002FB7A
:102D1000104443EA044300FB06F69E4209D91CEB2B
:102D2000030300F1FF3480F082809E427FD9023895
:102D3000634440EA0740A0FB09749B1BA3423E4644
:102D4000A04664D361D0BEF1000F0AD0BAEB0602F0
:102D500063EB080303FA05F5CA401543CB40CEE9FF
:102D6000005300213FE7730843EAC1734A08190C76
:102D700041EA02414FEAC67C9BB2B2FBF4F0264620
:102D8000A04627461F2243EA0143B1FBF4F1A3EB1F
:102D9000080341EA004158E72946FFE6284615E7BF
:102DA0001A46C3F120019C4026FA01F320FA01F1F2
:102DB00090400343270C06FA02FCB1FBF7F0A6B2E1
:102DC00007FB1015190C41EA054100FB06F58D4281
:102DD0003BD9611801D28D4220D8491B0138B1FB83
:102DE000F7F5019505FB06F8019D9BB207FB151150
:102DF00043EA0143434526D2E31805F1FF31C6D229
:102E00004345C4D2A91E2344C1E7BA459BD2B7EBC0
:102E1000090664EB0C040138A04694E7651B2944BD
:102E20000238B1FBF7F5019505FB06F8DCE7204613
:102E30007FE71F4666E70846F4E6A44402382FE71A
:102E4000023D234415E70199A1E7491BB1FBF7F5C2
:102E5000019505FB06F8C7E7F8B500BFF8BC08BC4C
:102E60009E467047F8B500BFF8BC08BC9E46704748
:102E7000466C61736800000049444C450000000046
:102E8000546D725100000000546D7220537663003F
:102E9000702E00080000000000000000000000008C
:102EA0000000000000020000180000000000000008
:102EB0000000000000000000000000000102030408
:042EC00006070809F0
:082EC40074FCFF7F0100000017
:042ECC004D020008AB
:042ED00025020008CF
:102ED40001000000100000000024F400AAAAAAAA1D
:0400000508002A7154
:00000001FF
