:020000040800F2
:1000000000000320B50F0008410500084305000863
:1000100045050008470500084905000800000000E4
:1000200000000000000000000000000005100008B3
:100030004B050008000000005D02000809020008EE
:10004000051000080510000805100008051000083C
:10005000051000080510000805100008051000082C
:1000600005100008051000084D05000805100008DF
:10007000051000080510000805100008051000080C
:1000800005100008051000080510000805100008FC
:1000900005100008051000080510000805100008EC
:1000A00005100008051000080510000805100008DC
:1000B00005100008051000080510000805100008CC
:1000C00005100008051000080510000805100008BC
:1000D00005100008051000080510000805100008AC
:1000E000051000080510000805100008051000089C
:1000F000051000080510000805100008051000088C
:10010000051000080510000805100008051000087B
:10011000051000080510000805100008051000086B
:10012000051000080510000805100008051000085B
:10013000051000080510000805100008051000084B
:10014000051000080510000805100008051000083B
:10015000051000080510000805100008051000082B
:10016000051000080510000805100008051000081B
:10017000051000080510000805100008051000080B
:1001800005100008051000080510000805100008FB
:1001900005100008051000080510000805100008EB
:0C01A000051000080510000805100008FC
:1001B00072B64FF0E0201949C0F8081D18481749D9
:1001C000096801601748016841F0010101604FF0C2
:1001D000E020154941614FF0070101614FF0000136
:1001E000C0F8181D4FF07F41C0F81C1D0F49C0F822
:1001F000201D7047FFF7FEBFFFF7FEBFFFF7FEBFF2
:1002000001B5BDE80140704701B500F091F8BDE8C7
:1002100001407047FFF7FEBFFFF7FEBF0000000878
:100220002C050020001000E0FF7002000000FF40DD
:100230004FF000002A4A1060EFF3148020F0040011
:1002400080F3148862B64FF080504FF0E021C1F87F
:10025000040DBFF34F8FBFF36F8FFEE72148224A93
:100260004FF00003016891B10360EFF3098C2CE9B2
:10027000F00F1EF0100F01D12CED108A1B4C4CF822
:1002800004ED2568C1F808C00DB18D61236072B618
:100290001168B1B1016062B64F68144C8D6907F105
:1002A00001074F602560D1F808C05CF804EB1EF030
:1002B000100F01D1BCEC108ABCE8F00F8CF3098858
:1002C000704772B61168016009B962B6F9E74FF07C
:1002D00000674FF0E028C8F8047D62B6DCE770479D
:1002E000900400202805002024050020300500206F
:1002F000026922F00702A2F144026FF002031360C8
:100300004FF0000353609360D360136153619361B6
:10031000D361136253629362D362136353634FF0EA
:10032000FF339363D1634FF080731364826070472F
:100330002249086800F101000860214B1A683AB1AF
:10034000A2F101021A601AB91E4B4FF001001860A9
:100350001D490868026822B11C4B4FF001021A6067
:1003600008E000F104001A4B1A68904201D1194BC1
:1003700018680860134B1A6812B914490868C8B1A4
:1003800001B51249086808B100F0C8FC0D4B1A68A5
:1003900072B100F011FC1048016849B90F480168BA
:1003A0000F4A13680F484FF08052994200D0026004
:1003B000BDE80140BFF34F8F70470000900A002056
:1003C000300500208C0A0020000A0020FC090020D3
:1003D000040A0020080A00209004002028050020BC
:1003E0002405002004ED00E00348044B834202D0C2
:1003F000034B03B11847704704000020040000209D
:10040000000000000548064B1B1AD90F01EBA301A1
:10041000491002D0034B03B1184770470400002075
:10042000040000200000000010B5064C237843B9FA
:10043000FFF7DAFF044B13B10448AFF30080012348
:10044000237010BD040000200000000060100008B0
:1004500008B5054B1BB105490548AFF30080BDE861
:100460000840FFF7CFBF00BF0000000008000020D9
:100470006010000882B0284B1A6B42F001021A6328
:100480001A6B42F002021A635A6C42F480425A64B8
:100490000023019302E0019B01330193019BB3F51B
:1004A0007A7FF8DB1D4B1A6822F440721A601A68D2
:1004B00022F0C0021A601A6842F040021A60184A1C
:1004C0001068184901401160106817490143116014
:1004D0004FF40021996103F5FE039361A2F54C42AC
:1004E000D36823F00F03D360104B1A6842F0100258
:1004F0001A609A6842F010029A60DA6822F01002DC
:10050000DA6010225A610A4B502283F80A234FF412
:1005100080621A6002B0704700380240000002405A
:1005200000040240FC3FFFCF01400010003C0140AE
:1005300000E100E008B5FFF79DFF00F08BF8FEE753
:10054000FEE7FEE7FEE7FEE7FEE77047134B5B6959
:1005500013F0100F20D082B0104B10225A6103F517
:10056000484344F281029A61A3F5806308229A61AC
:100570000023019302E0019B01330193019BB3F53A
:10058000FA7FF8DB064B4FF400229A6103F5806393
:10059000044A9A6102B07047704700BF003C0140B6
:1005A000000002400000814000B583B03423009376
:1005B0004FF48063034A0449044800F047FB03B04A
:1005C00000BD00BF5400002078100008200000206B
:1005D000034AD2F8883043F47003C2F88830704779
:1005E00000ED00E008B500F039F900F0A9FB0023A8
:1005F0000C4A13600C4A13600C4A13600C4A1360D7
:100600000C4A13600C4A13600C4A13600C4A1360C6
:100610000C4A13600C4A13600C4A13600C4A1360B6
:1006200008BD00BF84040020800400207C0400205A
:10063000780400207404002070040020640400206A
:10064000600400205C040020580400206C0400209A
:100650006804002010B50F4B1B6813F10F3F0CD13D
:100660000C4C4FF0F03323600B4B1868FFF79CFFE6
:1006700000232360FFF7DCFD10BD064B4FF0F03286
:100680001A60FFF795FDFFF7ADFF044A13680133C9
:100690001360E5E7000000205404002090040020CF
:1006A000F8B504460F4615461E463422002100F0D8
:1006B000AAFC26F003036760A561E361256165611B
:1006C000A3F10802A2600222E2602B4443F8044C2A
:1006D000A3F1080243F8085C2A600F4B6B6000230B
:1006E0002362EFF3108272B60C4B23600C4B1B6835
:1006F00053B90C490C60E4622463013308490B6070
:1007000082F310880020F8BD06490968086B0C6365
:10071000C4622063E162F0E7EEEEFFFF4554594208
:10072000580400205C0400202DE9F041044688466E
:1007300017461E46089D079AEF21069800F063FCB5
:10074000B0220021204600F05EFCC4F828806764D7
:10075000A664069BE360079B6361E562C4F894505E
:100760000A9BA361E3612023C4F89C30079B013BF3
:10077000069A13442361099B9D4230D003232363CF
:100780002E4B6365A4652E492046FFF7B1FDEFF3BC
:10079000108172B62B4B23602B4B1B681BBB2B4A63
:1007A0001460C4F88840C4F88C400133264A1360B2
:1007B000274A1368013313600B9B012B2DD1EFF3F4
:1007C0000582244B1B681343B3F1F03F18D3224B2F
:1007D0001D6805B3EB6B1E46EB6AEB6313E0E56344
:1007E000C4F89850CAE7194A1268D2F88C00C2F8C7
:1007F0008C40C0F88840C4F88C00C4F88820D4E746
:1008000000231E461D4681F31088204600F0A0F804
:1008100085B1EE630EE02E46F5E781F31088EFF325
:10082000108172B60A4A1368013B136081F3108885
:1008300000F070F80020BDE8F08100BF190C00083E
:10084000C1080008445248541C050020200500201F
:1008500090040020000000202405002010B5002492
:100860000D4B1C600D4B1C600D4B1C600D4B202272
:100870001A60802221460C4800F0C5FB0B4B1C601F
:100880000B4B1C600B4B1C600B4B1C600B4A136822
:1008900043F08573136010BD280500202405002057
:1008A00018050020140500209404002020050020D5
:1008B0001C050020900400208C04002088040020E7
:1008C00010B5114B1C68636CA06C98470F4B1B68EC
:1008D0000BB120469847EFF3108172B601232363D2
:1008E000A3630023E3640A4A13680133136081F3AE
:1008F0001088EFF3148323F0040383F31488204655
:1009000000F0B4F810BD00BF280500208C040020C2
:10091000900400200B4B1B689BB90B4B1A680B4BC8
:100920001B689A420DD04FF0E0234FF08052C3F87D
:10093000042DEFF3058323B9EFF3108362B683F33D
:10094000108870479004002028050020240500200E
:1009500038B50446EFF3108572B6436EDBB14C3008
:1009600000F082FA3B4A1368013B1360A36B002B33
:1009700061D1236B002B44D0636B002B3DD12363EB
:10098000E26A354B53F822303BB15A6A14625C621A
:100990006262236235E0C364E4E72F4B43F82240F0
:1009A00024626462012191402C4803680B43036078
:1009B0002B4B1B68934224D9294B1A60294B1B6887
:1009C000C3B1DB6B93421CD9264B1C6085F31088A6
:1009D000204B1B6873BB4FF0E0234FF08052C3F8ED
:1009E000042DEFF305832BBBEFF3108362B683F383
:1009F00010881FE01B4B1C6003E00023636303238C
:100A00002363194B1B6885F31088164A12689A42B3
:100A100010D0104B1B686BB94FF0E0234FF08052A1
:100A2000C3F8042DEFF3058323B9EFF3108362B607
:100A300083F3108838BD236B012BE2D0022BE0D06A
:100A4000636B13B9A3632363DBE7002363630323AF
:100A50002363D6E7900400209404002018050020AA
:100A600014050020240500202805002070B5044648
:100A70004A4B1D68EFF3108672B685421ED0484A75
:100A80001368013B1360A36B012B24D086F31088FD
:100A9000444B1B68AB4210D0414B1B686BB94FF005
:100AA000E0234FF08052C3F8042DEFF3058323B900
:100AB000EFF3108362B683F3108870BDC36C13B17B
:100AC000B3F1FF3F03D1E269374B1A60D7E74C30EF
:100AD00000F09EF9F7E70023A363E26A236A9C42D1
:100AE0002CD0616A59620B62304951F82210A14240
:100AF00020D02C4B1B68A342C8D12D4B1A682B4B1E
:100B000053F82220274B1A6086F31088244B1B6869
:100B1000002BD2D14FF0E0234FF08052C3F8042DC8
:100B2000EFF30583002BC8D1EFF3108362B683F394
:100B30001088C2E71D4941F82230DAE71B4B00213B
:100B400043F82210012303FA02F21A490B6823EA40
:100B500002030B6033B193FAA3F3B3FA83F3144A9D
:100B60001360C6E7124B20221A600E4B00221A6057
:100B700086F310880A4B1B68002B9ED14FF0E023B0
:100B80004FF08052C3F8042DEFF30583002B94D16E
:100B9000EFF3108362B683F310888EE728050020F8
:100BA000900400202405002030050020940400203B
:100BB0001405002018050020114B1B68EFF310826C
:100BC00072B610490020086063B1196B51B9D96938
:100BD00099610D480160196A994203D0D86ADB6BAC
:100BE000984202D082F310887047084B43F82010D7
:100BF0000749096853F82110064B1960F2E700BF56
:100C0000280500208C0A00203005002094040020D4
:100C1000140500202405002008B5EFF3108272B6F9
:100C2000036B042B07D0836ED0F8AC1082F31088CE
:100C300003B1984708BD04490B6801330B6082F388
:100C40001088FFF785FEF5E79004002000284FD0BC
:100C50002DE9F041884616461F460546069B342B73
:100C600002D00220BDE8F081EFF3108172B6254A70
:100C700013680133136081F31088234B1C68002034
:100C8000224B1B68834204D9AC4202D0E46A013093
:100C9000F6E7EFF3108172B61A4A1368013B13604E
:100CA00081F31088FFF736FEAC4223D026B3632FC2
:100CB00024D9174B1A68174B9A4217D00020EFF32C
:100CC0000582154B1B68134307D0EFF30582124BC7
:100CD0001B681343B3F1F03F12D30028C2D13B4647
:100CE000324641462846FFF7DBFCBBE71320E6E728
:100CF000022070470220B5E70320B3E70520B1E7E3
:100D00001320AFE7900400205C040020580400206A
:100D100028050020400900200000002008B5EFF35E
:100D2000108172B6044A13680133136081F310888E
:100D30000248FFF70DFE08BD900400204009002086
:100D400030B587B000241F4B1C601F4B1C601F4B2D
:100D50001C601F4B1C601F4B1C601F4D80222146D6
:100D6000284600F050F91D4B1D601D4B1D601D4BAA
:100D700005F17C021A6080351D601B4B1B4A1A600E
:100D80001B4B4FF480621A601A4B1C60194B1B6896
:100D900000220592049203930293154B1B68019362
:100DA000114B1B680093144B144A15491548FFF763
:100DB000BBFC0028EAD1144A1060144A106007B046
:100DC00030BD00BF900A0020300500208C0A0020B2
:100DD000FC090020F00900200C0A0020080A00206D
:100DE000000A0020040A00203C09002034050020ED
:100DF00038090020340900204D495441990E00085B
:100E00008C10000840090020F8090020F409002097
:100E1000036823B1B3F1FF3F01D0826902B170478B
:100E2000202B15D8013B0D4A126802EB83030C4AB4
:100E300012689A4203D89B1A0A4A126813441A6825
:100E400042B1516908615061026141618361E6E725
:100E50001F23E8E7006140611860F7E7000A0020FF
:100E6000040A0020080A0020836953B102699042F5
:100E700008D0416951610A611968814208D0002394
:100E8000836170471A688242F9D100221A60F6E73E
:100E900093611A60F3E700003E4B984200D0704720
:100EA00070B582B0002555E03B4B1A683B4B1A6089
:100EB00064E001912BE0A368E56861682160002986
:100EC00030D0C4F818D02461009435490C6082F306
:100ED00010880BB128469847EFF3108672B6304B56
:100EE00000221A60009BA3421ED086F31088EFF305
:100EF000108272B6019CE4B12369002100919C42EA
:100F0000D7D0616959610B6101A999610193236887
:100F1000202BD0D9203B2360C4F818D02461009442
:100F20000023D2E7A161D0E7A2612046FFF770FF5E
:100F3000DBE71C4B1B68002B29D11B4803230363F1
:100F40000123836319490B6801330B6082F3108816
:100F5000FFF78CFDEFF3108172B6104B1A6813681F
:100F600001930BB101A89861002313600B4A136829
:100F7000043313600E4A1268934295D0094B002245
:100F80001A6081F31088EFF3108272B6B2E782F331
:100F90001088DFE74D495441080A0020000A00206C
:100FA000F0090020FC0900204009002090040020E6
:100FB000040A0020DFF834D0FFF70AFB0C480D4983
:100FC0000D4A002302E0D458C4500433C4188C42A4
:100FD000F9D30A4A0A4C002301E013600432A2420A
:100FE000FBD300F019F8FFF7A5FA704700000320C3
:100FF0000000002004000020A810000804000020C9
:10100000940A0020FEE702440346934200D1704751
:1010100003F8011BF9E7000070B50D4B0D4C0026DD
:101020001D1BB6EBA50F09D100F01AF80A4C0B4BAB
:1010300000261D1BB6EBA50F05D170BD54F8043B6F
:1010400098470136EDE754F8043B98470136F1E73D
:10105000A0100008A0100008A0100008A4100008AC
:10106000F8B500BFF8BC08BC9E467047F8B500BF95
:08107000F8BC08BC9E46704765
:10107800547820417070206D656D6F727920706FA3
:101088006F6C000053797374656D2054696D6572D7
:081098002054687265616400D8
:0410A00051040008EF
:0410A4002904000813
:0410A800F0F0F0F084
:0400000508000FB52B
:00000001FF
