:020000040800F2
:10000000C0110020110C0008572E0008FD0B00083D
:10001000FD0B0008FD0B0008FD0B000800000000B0
:10002000000000000000000000000000450C000877
:10003000FD0B000800000000010E000881190008F7
:10004000790E0008790E0008790E0008790E000874
:10005000790E0008790E0008790E0008790E000864
:10006000790E0008790E0008790E0008790E000854
:10007000790E0008790E0008790E0008790E000844
:10008000790E0008790E0008790E0008790E000834
:10009000790E0008790E0008790E0008790E000824
:1000A000790E0008790E0008790E0008790E000814
:1000B000790E0008790E0008790E0008790E000804
:1000C000790E0008790E0008790E0008790E0008F4
:1000D000790E0008790E0008790E0008790E0008E4
:1000E000790E0008790E0008790E0008790E0008D4
:1000F000790E0008790E0008790E0008790E0008C4
:10010000790E0008790E0008790E0008790E0008B3
:10011000790E0008790E0008790E0008790E0008A3
:10012000790E0008790E0008790E0008790E000893
:10013000790E0008790E0008790E0008790E000883
:10014000790E0008790E0008790E0008790E000873
:10015000790E0008790E0008790E0008790E000863
:10016000790E0008790E0008790E0008790E000853
:10017000790E0008790E0008790E0008790E000843
:04018000790E0008EC
:1001840053B94AB9002908BF00281CBF4FF0FF31FA
:100194004FF0FF3000F00CB8ADF1080C6DE904CE5F
:1001A40000F008F8DDF804E0DDE9022304B070474C
:1001B400704700BF2DE9F0478C468E46089E1546D1
:1001C40004461946002B40F0D080724547D9B2FA54
:1001D40082F74FB1C7F120030EFA07FC20FA03F3AC
:1001E400BD4043EA0C0CBC404FEA154EA8B2BCFB20
:1001F400FEF8230C0EFB18CC08FB00F943EA0C4371
:10020400994528D9EB1808F1FF3204D2994502D94F
:10021400A8F102022B44A3EB0903A4B2B3FBFEFC36
:100224000EFB1C330CFB00F044EA0344A04214D937
:100234002C190CF1FF3304D2A04202D9ACF1020311
:100244002C44241A43EA02401EB1FC4000233460CB
:100254007360BDE8F0874246DDE76346F1E7002AB4
:1002640079D0B2FA82F3002B3FD01946C1F12003B2
:1002740002FA01F52EFA03F20EFA01FE20FA03F354
:1002840043EA0E034FEA154E00FA01F4B2FBFEFCFA
:10029400AFB20EFB1C201A0C0CFB07F842EA00421A
:1002A40090455AD9AA180CF1FF3004D2904502D9CE
:1002B400ACF102002A44A2EB08029BB2B2FBFEFCA2
:1002C4000EFB1C220CFB07F743EA02439F4246D96C
:1002D400EB180CF1FF3204D29F4202D9ACF10202B6
:1002E4002B44DB1B42EA004202E0AEEB0203012294
:1002F4004FEA154EAFB2B3FBFEFC200C0EFB1C33D1
:100304000CFB07F840EA034398452AD9EB180CF193
:10031400FF3004D2984502D9ACF102002B44A3EB80
:100324000803A4B2B3FBFEFC0EFB1C330CFB07F763
:1003340044EA0344A74216D92C190CF1FF3304D222
:10034400A74202D9ACF102032C44E41B43EA004067
:100354000F46114678E71F2188E76046ABE76246FF
:10036400BFE76046DBE76346EFE7734506D916B996
:10037400002108466DE7C6E9000EF9E7B3FA83F7F2
:1003840087B9734501D3824207D8841A6EEB0303FD
:1003940001209C461EB900215BE73846FAE7C6E90E
:1003A400004CF8E7C7F1200CBB4022FA0CF51D43C2
:1003B40020FA0CF12EFA0CF30EFA07FE41EA0E01B4
:1003C4004FEA154900FA07F4B3FBF9F81FFA85FE62
:1003D40009FB18300B0C08FB0EFA43EA00439A455C
:1003E40002FA07F240D9EB1808F1FF3004D29A451B
:1003F40002D9A8F102002B44A3EB0A0389B2B3FB90
:10040400F9F809FB183308FB0EFE41EA03418E4557
:100414002CD9691808F1FF3304D28E4502D9A8F10A
:100424000203294443EA0040A0FB0298A1EB0E0119
:100434004145CE46434602D306D14C4504D2B9EBDE
:10044400020E68EB05030138002EA4D0B4EB0E02B3
:1004540061EB030101FA0CFC22FA07F34CEA0303F3
:10046400F940C6E9003196E74046C5E74346D9E777
:1004740037B5184B18680469836801A95B68984705
:10048400034620B92268019B5340C3F30013124A68
:10049400124D1068124C002B10DD0122032102F0D2
:1004A400B0FB01221146286802F0ABFB0122206850
:1004B400002103B0BDE8304002F0A3BB00220321B9
:1004C40002F09FFB00222868012102F09AFB00221F
:1004D400EDE700BF38020020340200203002002083
:1004E4002C020020F8B52D4C2D4F2E4E2E4D2F48AA
:1004F4002F4B2060386033602B6003F062F80028D3
:1005040046D0386803F05DF8002841D0306803F025
:1005140058F800283CD0286803F053F8002837D056
:1005240038684FF4B012032102F07BFB30684FF4BB
:10053400B012012102F075FB28684FF4B0120021BB
:1005440002F06FFB20684FF48032042102F069FB53
:10055400206883689D692DB14FF0C0634FF0A0728D
:100564000421A847134A144B206853601023936056
:100574008368DB6913B10F49012298470F4802F0E1
:10058400CDFB4FF0FF314FF0FF3003F080F8F8E778
:100594000B4802F0C3FB0020F8BD00BF3802002066
:1005A40034020020300200202C0200207C3A000893
:1005B400603A000820020020750400082940000861
:1005C40012400008014B1B68184700BF00000020C0
:1005D400014B1860704700BF0000002030B504468E
:1005E40085B00D4610220021684603F0DAF8022394
:1005F4008DF802302A46044B01932146684602F0E6
:10060400BBF805B030BD00BFC905000880B505467C
:100614000E461746984601F051FE034600F03CFC96
:10062400DFF81890044649F800304246304639460F
:10063400A84754F8090000F0CBFB00BF08000000F5
:10064400034A536823F0020353600020704700BF3D
:10065400002004E008B54168054883681B680C3134
:100664001BB1984700EAE07008BD6FF05700F9E746
:100674002C390008192810B502D90024204610BDD1
:10068400044B53F82040204602F09BFF0028F5D18C
:10069400F3E700BFBC3E0008084B1A6842F48072BE
:1006A4001A601A6842F400721A601A6842F480628E
:1006B4001A60034B034A1A60704700BF003C0240B3
:1006C4002C0000200024F400014B0360002070473C
:1006D400243F00080648074A08B5121A002102F010
:1006E400B0FB0548054A0021121A02F0AAFB08BD16
:1006F40070000020C403002000000010000000105F
:100704000A480B4A0B4908B5121A02F09CFB0A4826
:100714000A4A0B49121A02F096FB0A480A4A0B4984
:10072400BDE80840121A02F08EBB00BF0000002092
:100734006C000020D04500080000002000000020CC
:10074400D045000800000010000000103C460008DE
:1007540038B505460C4699B1D1E901230F4809681B
:1007640002F0DCFAD4E90423E1680D4802F0D6FA79
:10077400E1690C4802F0D2FAA1690B4802F0CEFA02
:10078400012D05D1EFF305810848103902F0C6FAAE
:1007940021462846BDE8384001F07ABAEB4000080B
:1007A4001B4100084B4100085B4100088A410008D6
:1007B40030BFFFF7FDBF00BF2DE9F0410B4EDFF85E
:1007C400308006EB0807CC1B054632460949204613
:1007D40002F0D9FFA01942460021083C02F0E1FFD3
:1007E4002C6707F10800BDE8F08100BF000000009D
:1007F40004000000D83D00082DE9F843324D80463E
:1008040032488946174602F089FAAB6ADE0622D5D9
:100814002F4802F083FA1124AB6A1D0703D52D4833
:1008240002F07CFA1224284DAB6A980715D52A48A1
:1008340002F074FA6E6BAB6A190642D5274831464A
:1008440002F06CFAB9F1000F03D0AB6A23F0800315
:10085400AB62132403E01024DEE76FF015061A4D93
:10086400AB6ADA0703D51E4802F058FA1424AB6ABF
:100874009B0603D51B4802F051FA1524124B9A6AC1
:10088400D50602D49A6A90070AD55B68190507D57C
:100894004146304600F052FA10B180F30988022430
:1008A400094B9A6A920642BF5A6A22F400525A626B
:1008B4009A6A42F0FF029A6200233B702046BDE828
:1008C400F8836FF01506C4E700ED00E09E410008D0
:1008D400B5410008E9410008FD410008164200083E
:1008E4002D4200084D42000810B51D4C1D4802F071
:1008F40015FAA36A990130D51B4802F00FFA1E209D
:10090400A36ADA0103D5194802F008FA1F20144C2F
:10091400A36A1B0303D5164802F000FA2120A36A38
:10092400590303D5134802F0F9F922200C4CA36AA9
:100934009A0303D5104802F0F1F92320A36ADB03DC
:1009440003D50E4802F0EAF92420054A936A6FEAB7
:1009540003436FEA1343936210BD1D20D0E700BF29
:1009640000ED00E07D42000896420008AA4200081B
:10097400C5420008E44200080A4300082543000871
:1009840070B5244C064624480D4602F0C7F9A36A04
:10099400D90435D5214802F0C1F91720A36A1A05F4
:1009A40003D51F4802F0BAF918201A4CA36A9B0514
:1009B4000FD51C4802F0B2F9A16BA36A180407D53D
:1009C400194802F0ABF91EB1A36A23F40043A362F1
:1009D4001920104CA36A590503D5144802F09EF956
:1009E4001A20A36ADA050DD5114802F097F91B20E5
:1009F400084A936A43F47F43936200232B7070BDCB
:100A04001620CBE7A36A9B04F2D50A4802F086F9C4
:100A14001C20EDE700ED00E05143000868430008A6
:100A2400E94100087A43000894430008AA430008F7
:100A3400C64300084D4200082DE9F0415D4B5F6854
:100A44008AB00446C7F30806002585F31188BFF36E
:100A54006F8F02F07F43B3F17F4F06D102F00C0396
:100A6400082B13D1544802F059F900252C464FF0B5
:100A74000008F31E8DF80780092B00F28C80DFE854
:100A840003F00A80847C8A8A8A8A8A8810074CBF89
:100A94000C460125EBE74948464E02F03FF98DF834
:100AA4000780F36A9A0704D5454802F037F9002312
:100AB4002AE0F36A002B01DA4248F6E7F36A5B00A6
:100AC400F5D5414802F02AF97369A26943F48073A9
:100AD4007361BFF34F8FBFF36F8F32F8023C7269BB
:100AE40022F480727261BFF34F8FBFF36F8F03F4F0
:100AF4007F42B2F55F4F27D1DBB2022B24D12168AC
:100B0400324802F00BF923689DF80720CAB902AEF7
:100B140004F1200720686168324603C20834BC42ED
:100B24001646F7D1099A002D41D0C2F3080121B924
:100B34006FEA52226FEA4222099202A91846FFF78D
:100B440007FE0AB0BDE8F0811A4B9A6AD2B232B1FC
:100B54000DF1070201212046FFF74EFE0FE09A6ACD
:100B640012F47F4F05D00DF107010120FFF708FFB4
:100B740005E09B6AB3F5803F99D3FFF7B5FE0346C2
:100B8400C2E70DF107020021E5E70DF1070100209E
:100B9400ECE70F4889E70F4B0F49104817F4F87F2B
:100BA400A6F1100208BF194602F0B8F87FE76FF308
:100BB4000802C1E700ED00E00D44000839440008D4
:100BC400514400087344000882440008A244000809
:100BD400BF440008DF430008F4430008E44400086D
:100BE400044B5A6942F010025A615A6922F0080211
:100BF4005A61704700ED00E0EFF30880EFF30981DC
:100C040001B57246FFF718FF01BD00BF0A4880F323
:100C14000888102080F3118808484FF404614018B4
:100C240080F30988EFF314800221084380F31488C9
:100C3400BFF36F8F00F04AF8C011002000040020B9
:100C44001EF0040F0CBFEFF30880EFF309808169F5
:100C540011F8021C0229FFD001B5724602F0F5F822
:100C640001BD00BF40B2002807DB044A410901234B
:100C740000F01F00834042F82130704700E100E09B
:100C840040B20028A8BF00F1604001F10101B8BFE3
:100C9400064B4FEA0111ACBF00F5614000F00F00B4
:100CA400C9B2B4BF195480F80013704714ED00E0C2
:100CB400044B054A23F07F039360BFF34F8FBFF3C8
:100CC4006F8F70470000000800ED00E008B5FFF7E3
:100CD400EFFF0B4AD2F8883023F47003C2F888304F
:100CE400EFF3148323F0040383F31488BFF36F8FAB
:100CF400FFF7F0FCFFF704FD00F0B0F801F090F806
:100D040000ED00E042F8203C009B42F81C3C0A49FC
:100D1400019B42F8183C029B42F8143C21F001016B
:100D24004FF0807342F8043C42F8081C0023203A38
:100D340002654367704700BF11060008094A03466D
:100D4400906870B113F1160F006E05D0A0F1400247
:100D5400934205D3834203D2814228BF00207047C7
:100D6400002070479403002008B515460B4A0C4B2D
:100D74009060026F1A600E4600F0A0F82C4686F3CD
:100D840009880020034B98472046002100220023B5
:100D9400014C2047732E000811060008940300201C
:100DA400EC020020014B10221A61704700ED00E0B4
:100DB400054B5A699B689A421FBF044A536843F023
:100DC40080535360704700BF9403002000ED00E09F
:100DD400084B9B6883420BD1EFF3058343B1064B69
:100DE4005A6842F080525A605A6A22F400425A62A7
:100DF40001F06ABA9403002000ED00E014498A6807
:100E04004FF030001044EFF3098C80E8F01F1020FD
:100E140080F31288BFF36F8F0E4F4FF000664A695C
:100E24008A603E60106F0C4C2060506F0023536743
:100E340080F3118804B5104600F040F8BDE8044082
:100E440002F1300090E8F01F8CF30988704700002D
:100E54009403002004ED00E0EC0200200448002389
:100E64001021C2180133512B82F80013F9D17047B5
:100E740000E100E008B5EFF30583064A103B02EBFE
:100E8400C30152F8330049688847BDE80840FFF7BA
:100E94008FBF00BFEC3A00080148006870470000AB
:100EA400EC020020024B034A0348012100F076B80B
:100EB4000000032000000020243F0008036E054AC0
:100EC400403B1360044B4021C2E901131046012149
:100ED40000F06EB8F002002000000B15084AC2F8BA
:100EE40098000B6823F01F03034343F01003C2F878
:100EF4009C308B6843F00103C2F8A030704700BFF8
:100F040000ED00E02DE9F043DFF8608085B00E4687
:100F14001F4604464FF00009B14523DA6068D8B192
:100F24003FB1411E08421BD11F2819D92368194219
:100F340016D12368019301F0AEFFA3680343039322
:100F4400D8F89050C5F30725D0B2013DA84207D880
:100F540001A9FFF7C3FF421C09F101090C34DBE7C7
:100F64006FF01502104605B0BDE8F08300ED00E017
:100F7400044B0522C3F89420BFF34F8FBFF36F8F48
:100F8400704700BF00ED00E0BFF35F8F024B00220B
:100F9400C3F89420704700BF00ED00E010B5034C87
:100FA40001232278FFF7AEFF207010BDC00300209C
:100FB40008B50B4A00231278FFF7A4FF10F1160FAF
:100FC40007D0084A0021D2F89030C3F3072398428F
:100FD40000DB08BDC2F89800C2F8A0100130F2E7A7
:100FE400C003002000ED00E02DE9F0435A4B5B4DB7
:100FF400D3F890302C68C3F307239C4285B000F2E9
:10100400A780FFF7C1FF00200C2684421AD1544E5A
:10101400DFF8449134706846FFF756FB514C524D4B
:1010240080460027B84514D133784B490020D1F8C5
:101034009020C2F307229342C0F28480FFF798FF06
:10104400002045E0696806FB0011FFF747FF013007
:10105400DBE7009800EB07114FEA071CCB6823403D
:10106400B3F5000F4DD00AD8B3F5001F33D0B3F554
:10107400800F3BD0B3F5801F13D00137D2E7B3F113
:10108400007F47D0B3F1805F4DD0B3F1807FF4D1BE
:1010940050F80C3088684A6801F0FDFE40F0887012
:1010A40009E050F80C3088684A6801F0F4FE40F01A
:1010B400885040F43020CDE901230390D9F89030D2
:1010C4003078C3F30723013B984234D96FF01500FD
:1010D40005B0BDE8F08350F80C3088684A6801F028
:1010E400DAFE40F0885040F40020E4E750F80C3079
:1010F40088684A6801F0CFFE40F0C06040F40030D8
:10110400D9E750F80C3088684A6801F0C4FE40F012
:101114008270D0E750F80C3088684A6801F0BBFE52
:1011240040F48020C7E750F80C3088684A6801F022
:10113400B2FE2843BFE701A9FFF7D0FE337801339D
:1011440033709AE7C1F89830C1F8A00001336EE714
:101154004FF0FF30BCE700BF00ED00E0303F000877
:10116400C00300200000F0FF0000021108B5024B8C
:101174001B689847002008BDFC020020034B044A6A
:101184001860937843F0020393707047FC020020C8
:101194000400002008B50649064821F00701C1F102
:1011A400005202F5403201F076FD002008BD00BF78
:1011B400071200200003002007B5084A92E8030044
:1011C400CDE9000106488268126822B16946904759
:1011D40003B05DF804FB6FF05700F9E7D83D000851
:1011E4002C3900081F2809D8012303FA00F0044B06
:1011F4005B6998430CBF01200020704700207047B2
:10120400003C014000F01F021F284FF0010303FAC5
:1012140002F39DBF024A002053616FF0150070472E
:10122400003C0140044B1844002301338B4200F876
:10123400012BFADB704700BF3C0000202DE9F04190
:10124400104F054600264FF001086B78F4B2A34214
:1012540001D8BDE8F0812B781C442046FFF7C2FF7B
:1012640068B12046FFF7CEFF57F834303BB107EBA7
:10127400C40204F01F04516808FA04F098470136C8
:10128400E3E700BF0C030020034660B1B0FA80F22C
:10129400C2F11F02D2B205498856054A11680B43B0
:1012A4001360FFF7DFBCFF22F5E700BF3C0000201E
:1012B400003C0140024A136823EA000313607047AC
:1012C400003C0140032921D8DFE801F0020C101989
:1012D4000F4B9A6822EA00029A60DA6822EA000256
:1012E400DA6070470A4B9A680243F5E7084BDA68FC
:1012F4000243DA609A6822EA00029A607047044B5B
:101304009A6802439A60DA681043D860704700BF55
:10131400003C014030B5B0B1B0FA80F3C3F11F0313
:10132400DBB20B4850F833408C4204D100EBC305C8
:101334006D68954205D044B940F8331000EBC30002
:101344004260002030BDFF23EBE76FF00F00F9E7A8
:101354000C03002060B1B0FA80F3C3F11F03DBB2C9
:10136400044A002142F8331002EBC3025160704773
:10137400FF23F5E70C03002000F00302043292007F
:101384000F23934043EA9000C3B20233054A52F854
:101394002320030C02EA104093FAA3F3B3FA83F375
:1013A400D84070470038014038B52B4B18680B887B
:1013B400C3F30B03162B14460D464FEA900219D8BB
:1013C4000BB3013B152B1ED8DFE803F00D3A0B3AA3
:1013D40036242C1D1D1D1D1D1D1D1D1D1D1D1D1D0A
:1013E400380D4FF4FA4020602B68B3F5805F2BD2A0
:1013F400002038BD402B25D008D823F00402302A21
:10140400F1D0382BEFD06FF08500F2E7442B07D0F2
:10141400A82BF7E700F0D4F84FF4A873C00858439A
:101424004008E0E700F0CCF84FF4A873C008584334
:101434000723B0FBF3F0D6E70848D4E75000D2E71F
:101444000020D0E71046CEE7C3F313330133B0FBDB
:10145400F3F02060CCE700BF2C00002000127A00DB
:10146400162808D8054BC34013F0010F0CBF6FF0CA
:101474008500002070476FF085007047EA00600027
:10148400F8B54A4E4A4F00F0BBF8304601F0F8FD7B
:1014940000F03CFBBB68474AC3F303131478D35CE6
:1014A40046FA04F420FA03F5A54202D2204600F0DD
:1014B4005BFB3B6843F480233B603B6843F480332D
:1014C4003B603B4B1A689103FCD55A6F42F0010212
:1014D4005A675A6F9207FCD59A6802F00C02082AE0
:1014E40017D11A68970707D41A6842F001021A60E4
:1014F4002F4A13689807FCD52D4B9A6822F00302F3
:101504009A609A6812F00C0FFBD19A6822F0F002EC
:101514009A60274F3B6823F080733B603B689901D6
:10152400FCD4254AD2F8043823F44033C2F80438F2
:10153400D2F8043823F0706343F0E063C2F804384F
:1015440000F042F83B6843F080733B60184B1A6824
:101554009201FCD59A6822F0F0029A609A6822F00F
:10156400030242F002029A609A6802F00C02082A0E
:10157400FAD1A54202D3204600F0F6FA0F4B1E60C2
:101584000B4B9A6822F4E05242F4A0529A609A6893
:1015940022F4604242F400429A60D3F88C2022F094
:1015A4008072C3F88C200020F8BD00BF007A030AC3
:1015B40000380240C0450008003002402C000020E2
:1015C4000048704700127A00084B09495A681140D4
:1015D400084A0A435A605A68074922F440325A605A
:1015E4005A681140054A0A435A607047003802405D
:1015F4000080BFFF085440000080BFF0085440073B
:10160400064B1A6C42F0805282B01A641B6C03F0D1
:1016140080530193019B02B0704700BF0038024021
:1016240008B5074801F0CDFF38B10648FFF7A6FD1D
:101634000448FEF7CDFF002008BD6FF01200FBE761
:10164400B43A00084D1600080A2838B5074D044678
:1016540004D1AB680D215B6828469847AB68034802
:101664005B68E1B29847204638BD00BFB43A000831
:101674002DE9F843D0F804900746D9F808009046BD
:101684000D461E4601F065FCB8F5001F044616D150
:101694002846D9F80840FFF76FFE84420CD129464A
:1016A40001F057FC0446FFF705FE2046FFF752FE03
:1016B40000212046FFF706FE0020BDE8F883B8F5B8
:1016C400800F20D0B6F1806F19D0B6F1C06F18D05A
:1016D400B6F1007F1AD102260F493A462046FFF799
:1016E40019FEB0B9D9F80810284601F037FC204695
:1016F4003146FFF7E7FD2046FFF7C6FDDCE701268C
:10170400EAE70326E8E76FF08500D6E76FF01500F7
:10171400D3E76FF00F00D0E7F3310008F8B50C46BB
:10172400036941681E682379012B35D09A1E5542FE
:101734005541AD026279022A9CBF384F37F812C076
:10174400A27988BF4FF4005C042A28D0003B18BF5C
:1017540001231B03E279012A0A680CBF4FF4407786
:101764000027A642D1681DD121F4B05129430B436F
:10177400D360136923F4405343EA0C0313614368B1
:101784001A68536923F440733B43536131684068DA
:10179400BDE8F84001F005BE4FF4C065CAE74FF458
:1017A4008053D7E701F4C0618D421FBFD16821F493
:1017B400C0612943D160426811680A6902F4405249
:1017C40094451FBF0A6922F4405242EA0C020A619E
:1017D40042681168CA6802F4805293421FBFCA6803
:1017E40022F480521343CB6043681A68536903F4AC
:1017F40040739F421FBF536923F440733B435361BB
:1018040021683368994206D0406801F0CAFD08B9DE
:1018140023683360F8BD0020FCE700BF0C400008DB
:10182400F8B543681D6803691E680B79012B0C46E3
:101834001AD0991E4A424A41920294F805C0A779E7
:10184400BCF1020F96BF2D494FF4005131F81C1022
:10185400042F00D083B1A3F1030EBEF1010F06D80B
:101864006FF085031846F8BD4FF4C062E5E70BB18D
:10187400042FF5D04FF48053B1F5805F35D0B1F526
:10188400405F34D000290CBF012103218C45E7D1EE
:101894007BB3002A0CBF042303239F42E0D1E379E6
:1018A40083B1012BDCD1164B9D420BD0A3F54C43E5
:1018B4009D4207D003F580639D4203D003F54C435A
:1018C4009D42CDD1EB6823F40053EB602146FFF732
:1018D40025FF03460028C3D1EA6842F40052EA60B7
:1018E40094E8030086E80300BCE70021CEE7022168
:1018F400CCE7002A0CBF03230223CEE70C400008E8
:10190400001001404FF0E0230D4A996912681869EC
:101914009B69002908BF1146002B08BF134610F429
:10192400803F084801D1994205D201681144016001
:101934004FF0E021096900681044C01A704700BFE5
:10194400900300208C030020094B102283F82320ED
:10195400084B44F2A0121A60074B002018604FF0A5
:10196400E02344F29F125A61072298611A6170477A
:1019740000ED00E0900300208C030020684620F076
:1019840007018D4619B5FFF7BDFF114B1149D3E986
:1019940000420868001942F10002C3E900020E4A3D
:1019A40000230B60D2E9004144F2A013001BB0FBFA
:1019B400F3F043431B1941F10001C2E9003100F087
:1019C4005FFEFFF7F5F9BDE819408546704700BF93
:1019D400780000208C030020700000202DE9F041E5
:1019E400364E89B1421C0AD14FF0E022136923F02C
:1019F400010313614FF07F433360BDE8F081356824
:101A0400012806DC00240AE0431C3568F8D140F2C2
:101A1400E53040F2E6339842A8BF1846441EEFF37F
:101A24001187102383F31288BFF36F8FFFF76AFFC8
:101A340023494FF0E023D3F818C0D1E900238018DC
:101A440043F10003C1E900031E4B00221A601E4B40
:101A54001A68831A2DD444F2A01E44F29F1814FB72
:101A64000E841C44131AB4FBFEF440F21A420EFB1B
:101A74000433934238BF1346144A934228BF134693
:101A84004FF0E02233609469013B5361002393617A
:101A9400A445D1E90032ACEB04000DD20544EB18A7
:101AA40042F10002C1E9003287F31188BFF36F8F5E
:101AB400A3E740F21A43E3E7C318F1E790030020D9
:101AC400780000208C030020700000202094FF0088
:101AD40038B5EFF31185102383F31288BFF36F8FAA
:101AE400084B1C68084B1B68E41AFFF70BFF85F3CF
:101AF4001188BFF36F8F44F2A0132044B0FBF3F0BE
:101B040038BD00BF780000207000002008B51349DC
:101B14008B6803F00C03042B1CD0082B1CD14A68DF
:101B24004B68496813F4800314BF0D480D48C1F392
:101B3400881118BF002302F03F02A1FB0001FEF749
:101B44001FFB064B5B68C3F3014301335B00B0FB2F
:101B5400F3F008BD0248FCE70248FAE70038024007
:101B640000127A000024F400002800F08180424B27
:101B74001B6803F44043B3F5404F30D103F10F63C6
:101B840003F58C53984207D83C4B984209D83C4BF8
:101B9400984208D9032300E00523012B38BF012311
:101BA40009E00423F9E7374B98421AD8364B984298
:101BB4004FF00003F1D8304A126802F44042B2F503
:101BC400004F28D102F10F6202F5A34290420AD9D4
:101BD400002B08BF0523012B38BF01231BE0002382
:101BE400E9E70223E7E7254A904203D9002B08BF1F
:101BF4000423F0E7224A904203D9002B08BF0323B1
:101C0400E9E7204A904203D9002BE4D1022302E001
:101C14001D4A9042DFD8184A126802F44042B2F5D5
:101C2400804F13D1164A904206D9002B08BF0323D4
:101C3400012B38BF012309E0124A904203D9002B3B
:101C4400F6D1022302E0104A9042F1D80F490A6803
:101C540022F00F021A430A600A6802F00F0293424C
:101C640008D0086800F00F00C01A18BF01207047A0
:101C7400012070470020704700700040000E2707C5
:101C8400804A5D050087930380C3C901003C02407C
:101C940038B5EFF31185102383F31288BFF36F8FE8
:101CA400064B9C6801F0A0FC85F31188BFF36F8F8D
:101CB4002046BDE83840FFF78BB800BF94030020EE
:101CC40038B50A4B53F82040013053F82050A54250
:101CD40000D838BD606830B1037EDB0701D401F061
:101CE40058FC0834F3E723689847FAE7F43F000800
:101CF40070B52A4B2A4C2B4D86B0012203201A7052
:101D0400FFF7DEFF00F032FD0420FFF7D9FF26467F
:101D1400AE4204F130040FD300F00CFA204CAC4274
:101D240026D300F01BFAFEF7DDFB1F4A938923F04C
:101D34000103938106B070BD54F80C3C059354F82C
:101D4400103C049354F8143C039354F8183C029345
:101D540054F81C3C019354F8203C009354E90A23A2
:101D640054E90C0100F0C2F854F8303C5E65CEE74B
:101D7400D4E90A23B3F1FF3F08BFB2F1FF3F05D016
:101D840052EA0301206803D101F09AFC3034C6E71B
:101D94000649183000F0E4FBF8E700BFC103002057
:101DA400743D0008743D00080001002073360008EB
:101DB40070B5002386B00122CDE90423134E144DDF
:101DC40001930F22CDE902321249142303FB00557B
:101DD40006EBC01604464FF4C07000FB04110E4B12
:101DE40000954FF4A072304600F080F8337C0B4A23
:101DF400EE6023F0040333744FF4046304FB0333F1
:101E040013442C746B6006B070BD00BF80000020CA
:101E140094030020400C0020F33500080004002047
:101E24007FB50020FFF74CFF284B83F30888284C2C
:101E3400636943F4007363610025F02384F822305E
:101E4400E57725766576A57684F82050636A43F4B1
:101E5400E0236362FEF7C4FEFEF7A4FF4FF0FF33F6
:101E6400A362E362FFF7C0F8FFF71CF819481A4CA5
:101E740000F088F8FEF710FC0120FFF721FF022094
:101E8400FFF71EFF00F094F9144B15495C61154BE4
:101E9400059301234FF48062CDE90353CDE9015545
:101EA400114B0095204600F021F8237C064623F0D0
:101EB40004032046237401F0B7FB2846FFF778FF9C
:101EC400094A31462046FEF74FFF00BF400C002070
:101ED40000ED00E0800100200001002094030020B8
:101EE400C00D002063450008F51C00082DE9F043EF
:101EF400073285B022F007020E461F4610998181F1
:101F040000F158037F32C0E916330446002322F05F
:101F14003F020421836001743F2A0F98A073C4E92F
:101F24000633E37306F14009A2F1400805D883F3B0
:101F34001188BFF36F8F084602DFB5182946204683
:101F4400FEF73AFC07300E9B20F00700A066C4E9B8
:101F5400189802930D9B01932D1A0C9B00932A460B
:101F64003B4631462046FEF7CDFE00236365044B15
:101F74009B6803B1DB6EE366284605B0BDE8F083D9
:101F8400940300200123037483810023C0E91833E0
:101F9400C366014B9860704794030020094A936814
:101FA4006FF00A019967084958674B6843F08053FA
:101FB4004B60002383F31188BFF36F8F9368986F8E
:101FC400704700BF9403002000ED00E070B590F965
:101FD4001020037C002A2FDBD9062DD11A4C63F084
:101FE4007F032246037452F8183FE169934207D1F4
:101FF400C0E900210860E0610FE09942F8D01B6855
:10200400002BF5D093F90E6090F90E50AE42F4DD3A
:102014005968C0E9003108605860A569954200D04C
:1020240005B9E568A3681A7CD20606D1DA897F2A45
:1020340003D9AA690AB9636170BDAB4202D02846CC
:1020440000F010FA6561F7E79403002038B590F9C1
:102054001020037C002A014604DA03F07F03037492
:1020640001F0D0FA0D4D2A46AB6852F8184F94424D
:1020740000D004B9EC688B4207D01A7CD20604D194
:10208400DA897F2A01D9A2692AB1A34202D0204663
:1020940000F0E8F923466B6138BD00BF94030020CB
:1020A400034648B9EFF3058232B9064A516992688A
:1020B400914201D0FFF772BF83F31188BFF36F8F92
:1020C400704700BF9403002038B5184CA168E0693C
:1020D4000B68814214BF1A46002249680B6059609C
:1020E400A368E1692AB9124AC3E900210B60E361DC
:1020F4000AE092F90E5093F90E00854212DD516800
:10210400C3E900210B605360A569094B9D4200D0CF
:1021140005B9E568A3689D4202D0284600F0A2F9FB
:10212400656138BD8A42DED01268DBE79403002083
:10213400AC030020EFF31181102383F31288BFF363
:102144006F8F054B9A68D37B013BD37381F311885E
:10215400BFF36F8F704700BF9403002070B5EFF397
:102164001186102383F31288BFF36F8F0F4DAB6872
:10217400DA7B0132DA732A4652F8184F944200D0BF
:1021840004B9EC681A7CD20604D1DA897F2A01D911
:10219400A2692AB19C4202D0204600F063F923468A
:1021A4006B613046BDE87040FFF77ABF94030020AE
:1021B400024B03F11802C3E906227047940300207E
:1021C40070B5EFF31186102383F31288BFF36F8F7A
:1021D4001A4CA168E0690B68814214BF1A460022B8
:1021E40049680B605960A368E1692AB9144AC3E9D4
:1021F40000210B60E3610AE092F90E5093F90E009E
:10220400854216DD5168C3E900210B605360A5695E
:102214000B4B9D4200D005B9E568A3689D4202D0EE
:10222400284600F01FF965613046BDE87040FFF7AD
:10223400B5BE8A42DAD01268D7E700BF9403002003
:10224400AC030020F8B550EA010306460C4603D15E
:10225400FFF7B6FF0020F8BDEFF31187102383F3D7
:102264001288BFF36F8F124D124BA8681860FFF7E6
:10227400EDFEA868104923463246183000F070F984
:10228400AA68137C43F00403137404463846FFF72A
:1022940085FEAB68D3E90A23B3F1004F08BF002AD7
:1022A400D8D101F06CFA201A20EAE070D3E700BF1D
:1022B40094030020B403002073360008014B98688F
:1022C400704700BF940300202DE9F8430446878932
:1022D400EFF31186102383F31288BFF36F8F037C0F
:1022E400190705D586F31188BFF36F8FBDE8F8830E
:1022F400D90943F008026FD10274A36813B12046D0
:1023040001F088F904F1180001F011FAA56D04F147
:102314005808A84511D04FF0000975B1284601F0BE
:1023240079F905F1180001F002FAC5F87890284609
:10233400FFF74CFEA56DA845EFD1DFF8BC80D8F8B7
:1023440008309C4250D1EFF30589B9F1000918BF58
:102354004FF00109D8F81850284A954200D00DB919
:10236400D8F80C50AB4202D0284600F07BF8204647
:10237400C8F8145000F078FDB9F1000F02D02048DD
:10238400FFF700FED8F808309C4230D1EFF3058304
:102394006BBBA289D20711D586F31188BFF36F8F67
:1023A40083F31188BFF36F8F0423184602DFEFF322
:1023B4001186102383F31288BFF36F8F3046FFF723
:1023C400EDFDFB0792D5002383F31188BFF36F8FD4
:1023D4000423184602DF89E703F07F0343F0080370
:1023E400037401F00FF988E74FF00009B2E786F3B0
:1023F4001188BFF36F8FE4E794030020AC0300203F
:1024040080010020027C12F01F02034610D10A4909
:1024140088420DD00949086868B1D9897F2909D84B
:1024240093F90E20064B1B689A42B8BF00207047F0
:1024340000207047104670478000002030000020C4
:10244400B8030020044BC01A044BC0105843044B7B
:1024540001221A54704700BF00020020ABAAAAAAA6
:10246400C203002070B50C4B0C4D1E7CFFF7CAFF55
:10247400182303FB06550446284601F058F9084B77
:1024840000229A553CB1621E28460649BDE87040B8
:10249400D31700F065B870BD94030020000200203B
:1024A400C20300204924000838B5EFF31185102336
:1024B40083F31288BFF36F8F0F4B104A9C68106828
:1024C400A04206D1FFF7CEFF85F31188BFF36F8FCB
:1024D40038BD00211B7C1160094AD35C002BF3D06A
:1024E4002046FFF78FFF0028EED0237CDB0601D1C6
:1024F400FFF7EAFD2046E5E794030020B40300203B
:10250400C2030020024B1868984208BF002070479D
:1025140034000020034B1B680BB9FFF7D9BA002025
:10252400704700BFBC03002030B570B10B4B5B6833
:1025340098420AD0036843B1D3E90421D0E90445A1
:10254400121941EB0501C3E90421D0E900321360FB
:102554005A600023C0E9003330BD00BF34000020BE
:10256400B3F1FF3F08BFB2F1FF3F2DE9F84F044636
:10257400994615461F467AD08160EFF311881023DF
:1025840083F31288BFF36F8FB9F1000FDFF8E4A073
:1025940020DBFFF7BFFFDAE90027013549F1000925
:1025A4002D1849EBE073C4E90453AD18064643EB18
:1025B40007074FF00109FFF7A5FFDFF8BCE0DEF8DD
:1025C40004A00346EBB9C4E900EACAF80040CEF817
:1025D400044028E0DAE900126FF001035B1A4FF0BF
:1025E400FF3161EB02025B1B62EB0902012B72F10A
:1025F4000001BCBF01230022C0E904324FF00009EE
:10260400D9E7D3E9041CD4E904208A4270EB0C0B0B
:1026140024DA891A5A686CEB0000C3E90410C4E98F
:10262400003214605C60FFF76DFF84420ED1134BDF
:102634001B685BB9B9F1000F02D1FFF76BFF0646C7
:10264400304601F05DF80021FFF7C8F988F31188DE
:10265400BFF36F8F28463946BDE8F88F521A60EBF6
:102664000C005345C4E90420ADD01B68AAE700253B
:102674002F46EFE71802002034000020BC0300209E
:102684002DE9F0470246EFF31185102383F31288F6
:10269400BFF36F8FDFF89C90DFF89C80C9F80000CF
:1026A400FFF730FF00260027D8E900134FEAE27E47
:1026B40050B1D0E9044CA2427EEB0C0A1BDAA41AF6
:1026C4006CEB0E06C0E9044652184FF0000443EBCD
:1026D4000E032046C8E90023C9F8004001F010F8B1
:1026E4002146FFF77BF985F31188BFF36F8FBDE8AF
:1026F400F047FFF7D9BE611843EBE473C0E9046700
:10270400C8E90013FFF710FF85F31188BFF36F8F3B
:1027140083689847EFF31185102383F31288BFF37E
:102724006F8FD9F80020121BC9F80020FFF7EAFECA
:10273400BAE700BFBC0300201802002010B5EFF375
:102744001184102383F31288BFF36F8FFFF7E2FE27
:10275400054A0346D2E90001181841EBE37184F3FA
:102764001188BFF36F8F10BD18020020014800F0DC
:10277400D5BA00BF684500082DE9F04F8BB0436817
:10278400009383789C078046924640F1F9800025A7
:102794000878002800F0F68025280AD04B1C019305
:1027A40001354146009B98470028C0F2E380019917
:1027B400EEE74E788B1C252E0193F1D00027B94605
:1027C4003C460A221F2C22D8A6F12003102B20D825
:1027D400DFE803F0141F1F1A1F1F1F0B1F1F1F12F8
:1027E4001F171F1F090044F00104019B13F8016B1C
:1027F4000193002EE6D13AE044F0020444F00404CC
:10280400F3E744F00804F0E744F01004EDE77F2C0C
:1028140024D8A6F13003092B08D860064EBF02FB6A
:10282400073702FB093944F02004DEE72A2E0DD1D4
:1028340061065AF8043B53D4002BA7BF44F020048C
:102844009946C3F1000944F02804CEE72E2E05D1A1
:10285400630600F1978044F04004C6E76C2E2ED046
:1028640028D8682E32D06A2E37D04C2E35D0002F7F
:1028740046F02003B8BF24F04004A3F16502BCBFB6
:10288400A4B20027022A01D9612B2BD10AF1070A2D
:102894002AF0070A9C4E0AF1080A0727210760D587
:1028A40006EB070B34465C455DD1AE1BA219A9EBC0
:1028B400070959E1742E98D07A2E96D0D7E72606C8
:1028C40048BF44F4007444F080048EE7E00548BF38
:1028D40044F4007444F4807487E744F4207484E777
:1028E4001F4682E7A6F16302122A00F2D880DFE8CD
:1028F40012F013004D00D600D600D600D6004D00CD
:10290400D600D600D600D600D600E800D100D60006
:10291400D6001A00D600A0005AF8043B8DF81030F7
:10292400012704AEBAE75AF8046B784B002E08BFAF
:102934001E4614F0400F14BF39464FF0FF313046A5
:1029440000F037FF0746A9E7009B4146202098473F
:1029540000280FDB013CA742F6D34D442D1BA146B2
:102964009EE74C46F7E714F8010B009B4146984755
:10297400002898DA98F8023043F0040388F802300B
:102984004FF0FF3528460BB0BDE8F08F220630D556
:10299400A3052AD50AF1070A2AF007039A465968BB
:1029A4005AF8080B24F0100B00291FFA8BFB2FDABE
:1029B400404261EB41014BF4806B04AC0A23224694
:1029C40000F003FF1BF0400FA0EB040200F08E8028
:1029D4002BF001049742A4B240F38F80002E40F004
:1029E4008E802BF01104A4B21DE05AF8040BC11719
:1029F400D8E7E0055AF8041B01D40846F7E7A20516
:102A04004BBF48B208B241F3C01141F3C031C9E72A
:102A140050EA0103D1D16306CFD5002FCDD124F0E4
:102A24001104A4B23A463B4640F206410C4262D13C
:102A340024E024F01004A4B20A2314F0800243D04A
:102A440014F400711FBF0AF1070A2AF00702924624
:102A5400516814BF5AF8080B5AF8040B50EA0102E3
:102A64003ED124F0160B62061FFA8BFB3CD5002FD7
:102A74003AD124F01704A4B23A463B4621075AD46B
:102A8400E10705D5994572DDA9EB03039F184B4671
:102A94009B464AE044F0100410237826CDE7782BB7
:102AA40004D1C6F1780343F01003C6E7009B414606
:102AB400252098470028FFF65DAF02354146304691
:102AC40070E608230026B8E714F480715AF8040B62
:102AD400C4D014F400711ABFC0B2114680B2BDE76D
:102AE40024F006041FFA84FB04AC68E713465C4632
:102AF400E10699D52EB90133C0E71346F8E73B4602
:102B0400F6E70233BAE700BFAA450008A345000868
:102B1400CDE902324146009B202098470028FFF669
:102B240029AFDDE902320BF1010BD945F0DCEB1AD8
:102B340003EB0B055B46E10627D5CDE9023241469E
:102B4400009B302098470028FFF614AFDDE90232DD
:102B54007EB901352F44791B8A4229DB144604AE21
:102B64009CBB2A44A9EB03091546914442E017464D
:102B74008EE7CDE90232023541463046009B984744
:102B84000028DDE90232E5DAF4E640F206410C42BF
:102B9400E0D014F0020F14BF2B20202014F4806F17
:102BA400CDE9023205F10105414618BF2D20E5E7C4
:102BB400CDE902324146009B302098470028DDE9E8
:102BC400023205F10105C6DAD4E6013CCDE9023250
:102BD400305D009B414698470028DDE90232BFDAA8
:102BE400C8E6009B414620209847002805F10105CE
:102BF400FFF6C0AEA9EB0503002BF2DCD7E500BF5E
:102C04007047012303FA01F103691B68194218BFD5
:102C140082F0010212B18368DB68184783681B697C
:102C2400FBE7F0B406698768336801248C4023EA23
:102C3400040333603B6822F48012F0BC184700EBB5
:102C4400C100408840087047F8B50346FFF7F7FF16
:102C5400B0FA80F0C0F11F0003EB800CCA00DCF86E
:102C64001060171D0C4606328DB256B9012101FAC7
:102C740000F0D9680143D960CCF81040DD539D526F
:102C8400F8BDF1000431585AD85303EBC0009E52EA
:102C9400C5805D52F4E7043A2DE9F843CC1D114494
:102CA40024F0070421F00706A6EB04084FEAD8072E
:102CB400B7FA87F2C2F12405AD004FF000090735D9
:102CC400C2F12002ED0804604946A760C4F80C90E4
:102CD400920004F1100000F064FDAAB2530043F026
:102CE400010363807B1B9BB204EBC5015800A4F86D
:102CF4000090488024F83520A6F8029024F8083083
:102D040004EBC70329465A8842F001025A80204640
:102D1400BDE8F843FFF798BF002070470FB407B52C
:102D240004A951F8040B0191FDF758FC03B05DF8B8
:102D340004EB04B070477047F0B51E4643685C6806
:102D4400012067688840C2F3801327EA00078B409C
:102D54003B43636090FAA0F7B7FA87F7D4F808C04A
:102D64004FF0030E7F000EFA07F72CEA070C90FAD7
:102D7400A0F7B7FA87F7C2F3C1137F00BB4043EA59
:102D84000C03A36090FAA0F3B3FA83F3E7685B0043
:102D94000EFA03F327EA030790FAA0F3B3FA83F3D6
:102DA40002F030055B00C2F341229A403A43202DE1
:102DB400E26016D107292CD890FAA0F3226A33B323
:102DC400B3FA83F39B000F2101FA03F322EA03020F
:102DD40090FAA0F3B3FA83F39B0006FA03F31343C8
:102DE400236290FAA0F3B3FA83F3226890FAA0F076
:102DF40003215B00B0FA80F001FA03F340002D09CF
:102E040022EA030385401D4325600020F0BD2B46C4
:102E1400D8E7030A616A93FAA3F282B1B2FA82F2A2
:102E240092000F2793FAA3F3B3FA83F307FA02F29B
:102E34009B0021EA02029E4016436662D1E72A46BD
:102E4400EEE700F0AEBC00F09EBC01460068FDF762
:102E54007FBC08B5FDF7ACFCBDE80840FDF7A8BF92
:102E640000210120FDF774BC6FF08500704761B646
:102E740062B680F31188BFF36F8F704772B6002378
:102E840083F31188BFF36F8FBFF34F8F30BF62B6E8
:102E9400BFF36F8F7047202809D9B0F1004F08D8CD
:102EA4000138B0FA80F0C0F11F00400070470820DC
:102EB40070473E20704708B5FEF758F9002008BD5A
:102EC40008B5062201210020FEF7ACF900221146C4
:102ED4000620FDF7D5FE012108460722FEF7A2F9D8
:102EE400002211460720FDF7CBFE08220121022013
:102EF400FEF798F9002211460820FDF7C1FE0922C9
:102F040001210320FEF78EF9002211460920FDF766
:102F1400B7FE0A2201210420FEF784F9002211469B
:102F24000A20FDF7ADFE052108461722FEF77AF9BF
:102F3400002211461720FDF7A3FE282206210A20AD
:102F4400FEF770F9002211462820FDF799FE0020B3
:102F540008BD01F01F0101208840704700F0030202
:102F6400043292000F23934043EA900010B5C3B299
:102F74009B0003F1804303F59C33020C9C6892FA96
:102F8400A2F2B2FA82F224EA10409140014399601D
:102F940010BD0B88C3F30B0303F57D62C2F30B0270
:102FA400782A82B014D803F1804303F50E334868BD
:102FB4001A6802431A600B88C3F30B0303F18043BE
:102FC40003F50E3300201B680193019B02B0704788
:102FD4006FF08500FAE70B88C3F30B0303F57D62FA
:102FE400C2F30B02782A9FBF03F1804303F50E332B
:102FF40049681A689DBF8A4300201A606FF08500F3
:10300400704770B508884A68C0F30B0094B2C2F3E5
:103014000445FEF725FAA0B9FF2A11D004F1804136
:10302400C2F3415601F50E3101360123B3400C6859
:10303400013BAB40120E24EA0303AA4013430B6086
:1030440070BD6FF08500FBE70888C0F30B0008B57E
:1030540000F57D63C3F30B03782B0AD800F180409D
:1030640000F50E304B68026893430CBF0220012028
:1030740008BDFEF7F5F900280CBF02200120F7E790
:10308400704743685B681B690B60002070474368A6
:103094005B68586942400A4042405A6100207047C8
:1030A40043685B6800209961704743685B68090462
:1030B40099610020704743685B685A6951405961BF
:1030C4000020704730B50369986800B30024884233
:1030D40019D108688CB9DC689860A14200D1D86025
:1030E400002008602AB19A680A60DA68996002B917
:1030F400D96000200FE02846E9E72060D8688142C3
:1031040008BFDC60ECE705680446002DF3D1002A13
:10311400E9D16FF0150030BD12F4003CF8B5054656
:103124000C46134642D0960739D550075CD5502239
:10313400D90636D542F4007203F4C061B1F5806F4C
:1031440044D0B1F5C06F3ED0B1F5007F41D013F447
:1031540040372E6912D0706820FA04F1C9075FBFA6
:103164000121A14001437160BCF1000F06D0180396
:1031740032D5696801234968A3408B610023214645
:103184002846FFF7D9FD47B9736823FA04F2D2073A
:1031940041BF0122A240934373600020F8BD102276
:1031A400C6E79F06C8D542F48062C5E7D60305D5B5
:1031B400D00605D4C2F340129202BDE73022BBE729
:1031C4004FF40072B8E742F4C072C0E742F4807270
:1031D400BDE742F08002BAE75903CFD50121A140EF
:1031E4002846FFF762FFC9E76FF08500D6E770B5A0
:1031F4000B690E469968054609B10C6801B970BDA2
:103204008A682A4002D04B68304698471CB123682C
:1032140021461C46F2E72346FAE730B503681360FB
:103224000579046804EBC504A34202D36FF00100DE
:1032340030BD5C798C4203F10803F0D10020F7E73C
:103244002DE9F84F044600EBC10700254FF00108B3
:10325400BC4202D10020BDE8F88FD4F800B01BF0C6
:10326400100F21D1656845F02005CBF34420FDF70C
:1032740001FA814610B3CBF343160BF01F0A5346F1
:103284002A463146FFF758FD0028E4DBBAF1110F56
:1032940008D1D9F8043029055A6808FA06F358BF4A
:1032A4001B0493610834D3E70BF01F03102B03D0E6
:1032B400112BDAD16568D8E73025D6E76FF0120014
:1032C400C9E74368C1F34B101B6801F01F01C058E4
:1032D40001238B400340003B18BF012313700020DF
:1032E400704710B54368C1F34B101A6801F01F0111
:1032F400845801238B4023438350002010BD10B514
:103304004368C1F34B14186801F01F0123580122CC
:103314008A4023EA02032350002010BD38B5044636
:103324000D46FFF7DEFF29462046FFF7E8FF0020A1
:1033340038BD82B003680193019B43680193019BEC
:1033440002B0704708B54368186802680368C2F39E
:10335400C00203F0010342EA430203689B070368C7
:1033640048BF42F004025907036848BF42F02002F4
:10337400DB0542BF6FF4807342F008020360D1079B
:1033840001D5FFF7D6FF930701D5FFF7D2FF510709
:1033940001D5FFF7CEFF930601D5FFF7CAFF10460C
:1033A40008BD37B5034604680D4619B96FF015001A
:1033B40003B030BD406819698368DB6803B301AAB0
:1033C40098470028F4DBE368019923F400431920AB
:1033D400E360AA00AB0FA1FB0001FCF7D1FE64225D
:1033E400B0FBF2F102FB11031B013233B3FBF2F326
:1033F40003EB01130F2BD9D99BB2A3600020D7E7AD
:103404006FF05700D4E708B54368186803681A07D3
:1034140001D5FFF78EFF03689B0643BF43680B701B
:1034240000204FF0FF3008BD10B543681B68102022
:103434001A681206FCD5EFF3118280F31288BFF3E9
:103444006F8F1C68240604D482F31188BFF36F8F36
:10345400EEE7596082F31188BFF36F8F10BDF7B5A3
:10346400446805466068216983681B68002B40D066
:10347400984700283BDB606A01AA0021FFF7CDFED4
:10348400002834DB019B002219791868FFF7D8FE65
:1034940000282CDB6E682B6934681F68E36823F40A
:1034A4000053E360B06800F08CF828B3D6E9020159
:1034B4008368DB6803B1984704F10C0353E8003FC9
:1034C40043F00C0304F10C0141E80032002AF3D16B
:1034D40039462846FEF722F988B9337E1BB1636961
:1034E40043F008036361E36843F40053E36003B00B
:1034F400F0BD6FF05700FAE76FF01200F7E76FF0D6
:103504001500F4E703691B681B680B6043681B68BC
:10351400DB6803F4C063B3F5806F2FD0A3F5C06CF0
:10352400DCF1000343EB0C030B7143681B681B695C
:1035340003F44053B3F5805F22D0B3F5405F21D04C
:10354400002B0CBF012303234B7143681B68DA680B
:10355400DB68D20403F4C06316D5002B0CBF04232C
:1035640003238B7143681B685B6903F44073A3F501
:10357400407253425341CB71002070470223D3E77A
:103584000023E1E70223DFE7002B0CBF0323022320
:10359400E7E710B5436904463BB90020E268537875
:1035A40043F001035370404210BD98470028F4D003
:1035B4000028B8BF4042E368FF28A8BFFF20187066
:1035C400ECE740B1C368587810F001001EBF1878CA
:1035D400B0FA80F040097047EFF31183102383F3AE
:1035E4001288BFF36F8FFEE708B5FFF7F5FF08B544
:1035F4001024EFF3118384F31288BFF36F8FFFF766
:103604003DFCF6E7D0E9003213605A600023C0E9BC
:103614000033704708B5FFF7F5FF037C23F002037E
:1036240003740023836008BD10B5EFF311841023E5
:1036340083F31288BFF36F8FFEF7C8FC84F31188FD
:10364400BFF36F8F10BD08B5037C13F0280F01463C
:103654000CD183680BB1FFF7DDFF0B7C23F004036F
:103664000B740846BDE80840FEF7B0BC08BD10B5B1
:10367400EFF31184102383F31288BFF36F8F18388C
:10368400FFF7E1FF84F31188BFF36F8F10BD38B5E6
:1036940005460C46FEF7D6FDB4F1FF3F08BFB5F171
:1036A400FF3F0AD0C11709304FF00A024FF0000360
:1036B40041F10001FCF764FD38BD4FF0FF30FBE73A
:1036C40038B50446EFF31185102383F31288BFF352
:1036D4006F8F037C5B070ED5183000F028F8237C2D
:1036E40023F0040320462374FEF770FC2846BDE84B
:1036F4003840FEF7D5BC85F31188BFF36F8F38BD12
:1037040008B50246FEF7FEFE70B1D0E904319B1AFB
:1037140061EBE272B3F1004F72F1000104DA002AA6
:10372400ACBF1846002008BD6FF00040FBE738B579
:103734000246EFF31185102383F31288BFF36F8FD2
:103744000368CBB1FEF7DEFE04461046FEF7ECFE3E
:1037540000224FF000438442C0E9042306D1FEF75F
:10376400D9FEFFF7CDFF0021FEF738F9002085F3DD
:103774001188BFF36F8F38BD6FF01500F7E708B5F8
:10378400FEF7DCFF08BD0A44914200F1FF3300D18B
:10379400704710B511F8014B03F8014F9142F9D16C
:1037A40010BD02440346934200D1704703F8011B45
:1037B400F9E710B5024601448A42134603D01C7847
:1037C4000132002CF8D1181A10BDF0B5C3F1370737
:1037D4000446FFB203F01F031046082BE6B233D0B1
:1037E400102B3ED06508A40844EA817445EAC175EB
:1037F4002D194FEA910242EB5102290941EA027163
:103804006D1842EB1212290A41EA02616D1842EB6B
:103814001222290C41EA02416D1842EB1242AD1802
:1038240042F10002EC0844EA4274D10804EB840239
:10383400A6EB4205EDB2092D0CD90134A5F10A0518
:1038440041F10001EDB212E0E40844EA417406F0EB
:103854000705C908303554EA010200F8015BBCD100
:10386400F0BD240944EA017406F00F050909092D85
:0838740084BFED19EDB2EDE790
:08387C003CC9FF7F01000000C0
:10388400000000002C390008450600080000000074
:10389400000000004839000800000000443A000815
:1038A40000000000603A0008000000007C3A0008B4
:1038B40000000000983A000800000000283A0008C0
:1038C400000000000C3A000800000000F039000875
:1038D40000000000D439000800000000B8390008D6
:1038E400000000009C390008000000008039000836
:1038F4000000000064390008C52E00080000000024
:1039040000000000B43A000800000000D03A0008AB
:1039140025160008000000004D19000800000000F2
:083924009911000800000000E9
:10392C002545000800000000A83D000864000020A8
:10393C00000000008514000800000000324500085B
:10394C00503F0008983D0008660000200000000071
:10395C00000000000000000051400008E03D00089D
:10396C00743D00084C0000203C0200205906000861
:10397C00000000005F400008F43D0008743D0008A2
:10398C004E0000204C0200205906000800000000E8
:10399C006D400008083E0008743D000850000020EF
:1039AC005C02002059060008000000007B40000863
:1039BC001C3E0008743D0008520000206C020020E0
:1039CC00590600080000000089400008303E00083D
:1039DC00743D0008540000207C02002059060008A9
:1039EC000000000097400008443E0008743D0008A9
:1039FC00560000208C020020590600080000000030
:103A0C00A5400008583E0008743D000858000020EE
:103A1C009C0200205906000800000000B34000087A
:103A2C006C3E0008743D00085A000020AC020020D7
:103A3C005906000800000000C1400008803E000844
:103A4C00743D00085C000020BC02002059060008F0
:103A5C0000000000CF400008943E0008743D0008B0
:103A6C005E000020CC020020590600080000000077
:103A7C00DD400008A83E0008743D000860000020EE
:103A8C00DC02002059060008000000000745000871
:103A9C000000000000000000620000200000000098
:103AAC00BD1100080000000043450008543F000809
:103ABC00C43D000868000020140000206334000896
:103ACC000000000053450008A43F0008C43D000856
:103ADC006A00002020000020633400080000000071
:103AEC0000000000652E000800000000652E000894
:103AFC0000000000652E000800000000652E000884
:103B0C0000000000652E000800000000652E000873
:103B1C00BE45000841120008BC45000841120008CF
:103B2C00BA45000841120008B845000841120008C7
:103B3C00B64500084112000800000000652E000880
:103B4C0000000000652E000800000000652E000833
:103B5C0000000000652E000800000000652E000823
:103B6C0000000000652E000800000000652E000813
:103B7C0000000000652E000800000000652E000803
:103B8C0000000000652E000800000000652E0008F3
:103B9C0000000000652E0008B44500084112000822
:103BAC0000000000652E000800000000652E0008D3
:103BBC0000000000652E000800000000652E0008C3
:103BCC0000000000652E000800000000652E0008B3
:103BDC0000000000652E000800000000652E0008A3
:103BEC0000000000652E000800000000652E000893
:103BFC0000000000652E000800000000652E000883
:103C0C0000000000652E000800000000652E000872
:103C1C0000000000652E000800000000652E000862
:103C2C00B24500084112000800000000652E000893
:103C3C0000000000652E000800000000652E000842
:103C4C0000000000652E000800000000652E000832
:103C5C0000000000652E000800000000652E000822
:103C6C0000000000652E000800000000652E000812
:103C7C0000000000652E000800000000652E000802
:103C8C0000000000652E000800000000652E0008F2
:103C9C0000000000652E000800000000652E0008E2
:103CAC0000000000652E000800000000652E0008D2
:103CBC0000000000652E000800000000652E0008C2
:103CCC0000000000652E000800000000652E0008B2
:103CDC0000000000652E000800000000652E0008A2
:103CEC0000000000652E000800000000652E000892
:103CFC0000000000652E000800000000652E000882
:103D0C0000000000652E000800000000652E000871
:103D1C0000000000652E000800000000652E000861
:103D2C0000000000652E000800000000652E000851
:103D3C0000000000652E000800000000652E000841
:103D4C0000000000652E000800000000652E000831
:103D5C0000000000652E000800000000652E000821
:083D6C0000000000652E0008B4
:103D74001D3100088730000893300008A530000882
:103D8400AF300008BB30000875160008C9300008C1
:043D9400000000002B
:103D9800C7320008E732000803330008213300085F
:103DA800972F0008DB2F000800000000AD13000863
:0C3DB8004D30000800000000073000083B
:103DC4000B3400082D340008493300082518000876
:043DD40009350008A5
:103DD8004400000000400000FFFF000000280240EF
:103DE8000A0000003000000000040000FFFF00008F
:103DF800002402400900000030000000000200001A
:103E0800FFFF000000200240080000003000000012
:103E180000010000FFFF0000001C02400700000036
:103E28003000000080000000FFFF00000018024082
:103E3800060000003000000040000000FFFF000006
:103E480000140240050000003000000020000000BF
:103E5800FFFF0000001002400400000030000000D6
:103E680010000000FFFF0000000C024003000000EB
:103E78003000000008000000FFFF000000080240BA
:103E8800020000003000000004000000FFFF0000F6
:103E980000040240010000003000000002000000A1
:103EA800FFFF00000000024000000000300000009A
:103EB800010000007C3A0008603A0008443A000813
:103EC800283A00080C3A0008F0390008D4390008EC
:103ED800B83900089C39000880390008643900089E
:103EE80000000000000000000000000000000000CA
:103EF80000000000000000000000000000000000BA
:103F080000000000000000000000000000000000A9
:103F18000000000000000000000000000000002079
:103F28000000000000000B0602000000383F0008F7
:103F380000000008F84400082800020600000020DD
:103F48000045000822000B110038024000480040DC
:103F58002C39000848390008120400007C3F00088A
:103F68000100000000000000000000000000000048
:103F7800843F000840000000000004008C3F000857
:103F880001000000943F000802000000070700003D
:103F98000002000027070000000000000014014094
:103FA8002C3900084839000885040000CC3F000877
:103FB80001000000000000000000000000000000F8
:103FC800D43F00084400000020000000DC3F000847
:103FD80001000000E43F000802000000C80D0000D6
:103FE80000020000280D00000000000084380008CE
:103FF800843800081C390008243900082C390008C6
:104008002C3900080010000000304750494F206448
:104018006576696365206E6F742072656164790ADC
:1040280000504134202D3E20504133202B20504257
:1040380031202B204C443120466F727761726465C1
:10404800722052656164790A006770696F40343084
:10405800303232383030006770696F403430303277
:1040680032343030006770696F403430303232306B
:104078003030006770696F4034303032316330302F
:10408800006770696F403430303231383030006743
:1040980070696F40343030323134303000677069C5
:1040A8006F403430303231303030006770696F40E3
:1040B8003430303230633030006770696F403430EC
:1040C800303230383030006770696F403430303209
:1040D80030343030006770696F40343030323030FF
:1040E80030300072302F61313A2020307825303856
:1040F80078202072312F61323A20203078253038EC
:1041080078202072322F61333A20203078253038D9
:10411800780A0072332F61343A20203078253038FD
:1041280078207231322F69703A2020307825303863
:1041380078207231342F6C723A202030782530384C
:10414800780A0020787073723A2020307825303849
:10415800780A004661756C74696E6720696E7374BD
:1041680072756374696F6E2061646472657373201D
:10417800287231352F7063293A2030782530387805
:104188000A00556E68616E646C6564204952516E10
:104198003A2025640A002A2A2A2A2A204D50552026
:1041A8004641554C54202A2A2A2A2A0A00202053FC
:1041B8007461636B696E67206572726F7220286321
:1041C8006F6E746578742061726561206D696768C7
:1041D80074206265206E6F742076616C6964290AA8
:1041E800002020556E737461636B696E6720657279
:1041F800726F720A00202044617461204163636514
:1042080073732056696F6C6174696F6E0A002020A1
:104218004D4D46415220416464726573733A2030B3
:104228007825780A002020496E7374727563746962
:104238006F6E204163636573732056696F6C617498
:10424800696F6E0A002020466C6F6174696E672D75
:10425800706F696E74206C617A792073746174650B
:1042680020707265736572766174696F6E2065720D
:10427800726F720A002A2A2A2A2A20555341474572
:10428800204641554C54202A2A2A2A2A0A0020204E
:104298004469766973696F6E206279207A65726FF6
:1042A8000A002020556E616C69676E6564206D6533
:1042B8006D6F7279206163636573730A0020204E05
:1042C8006F20636F70726F636573736F7220696EAE
:1042D800737472756374696F6E730A002020496C79
:1042E8006C6567616C206C6F6164206F662045584F
:1042F800435F52455455524E20696E746F205043A7
:104308000A002020496C6C6567616C207573652014
:104318006F662074686520455053520A002020417A
:104328007474656D707420746F2065786563757436
:104338006520756E646566696E656420696E737460
:1043480072756374696F6E0A002A2A2A2A2A204223
:104358005553204641554C54202A2A2A2A2A0A0015
:104368002020537461636B696E67206572726F7287
:104378000A00202050726563697365206461746166
:1043880020627573206572726F720A00202042469F
:10439800415220416464726573733A2030782578FD
:1043A8000A002020496D7072656369736520646135
:1043B800746120627573206572726F720A00202022
:1043C800496E737472756374696F6E2062757320B9
:1043D8006572726F720A0052657365727665642041
:1043E800457863657074696F6E2028005370757224
:1043F800696F757320696E746572727570742028A0
:104408004952512000535053454C20696E2074681E
:1044180072656164206D6F646520646F6573206EDA
:104428006F7420696E646963617465205053500A23
:10443800002A2A2A2A2A2048415244204641554C1B
:1044480054202A2A2A2A2A0A002020427573206624
:1044580061756C74206F6E20766563746F7220745A
:1044680061626C6520726561640A0020204465629F
:104478007567206576656E740A0020204661756C44
:104488007420657363616C6174696F6E202873654D
:10449800652062656C6F77290A00415243485F4581
:1044A8005843455054207769746820726561736F6A
:1044B8006E2025780A0A002A2A2A2A2A20446562B8
:1044C8007567206D6F6E69746F72206578636570AB
:1044D80074696F6E202A2A2A2A2A0A002A2A2A2A76
:1044E8002A20257320256429202A2A2A2A2A0A0014
:1044F800464C4153485F30005352414D5F3000698C
:104508006E746572727570742D636F6E74726F6CF1
:104518006C6572403430303133633030007263631D
:104528004034303032333830300072657365742D62
:10453800636F6E74726F6C6C65720073657269611B
:104548006C40343030303438303000736572696113
:104558006C403430303131343030006D61696E0078
:104568002A2A2A20426F6F74696E67205A6570681C
:104578007972204F53206275696C642076342E332B
:104588002E302D393630392D6731383633323034C4
:104598006564616262202A2A2A0A00286E756C6C9A
:1045A80029002A666C6F61742A000A060505040151
:1045B80003010201010100010000000000000000E9
:0845C8000102030406070809C3
:1045D0001D2D000800000000BB2E00080000000098
:1045E000000000001800002000C2010000010300CC
:1045F0002400002000C20100000103000024F40098
:10460000C80000003400002034000020FFFFFFFF3E
:0C461000FFFFFFFFFFFFFFFFFFFFFFFFAA
:10461C00000000000000000000000000000000008E
:10462C00000000000000000000000000000000007E
:04463C0015E015E090
:0400000508000C11D2
:00000001FF
