:020000040800F2
:10000000C05F00208D0D00082F300008790D00081A
:10001000790D0008790D0008790D00080000000036
:10002000000000000000000000000000C10D0008FA
:10003000790D0008000000007D0F0008FD1A00087F
:10004000F50F0008F50F0008F50F0008F50F000880
:10005000F50F0008F50F0008F50F0008F50F000870
:10006000F50F0008F50F0008F50F0008F50F000860
:10007000F50F0008F50F0008F50F0008F50F000850
:10008000F50F0008F50F0008F50F0008F50F000840
:10009000F50F0008F50F0008F50F0008F50F000830
:1000A000F50F0008F50F0008F50F0008F50F000820
:1000B000F50F0008F50F0008F50F0008F50F000810
:1000C000F50F0008F50F0008F50F0008F50F000800
:1000D000F50F0008F50F0008F50F0008F50F0008F0
:1000E000F50F0008F50F0008F50F0008F50F0008E0
:1000F000F50F0008F50F0008F50F0008F50F0008D0
:10010000F50F0008F50F0008F50F0008F50F0008BF
:10011000F50F0008F50F0008F50F0008F50F0008AF
:10012000F50F0008F50F0008F50F0008F50F00089F
:10013000F50F0008F50F0008F50F0008F50F00088F
:10014000F50F0008F50F0008F50F0008F50F00087F
:10015000F50F0008F50F0008F50F0008F50F00086F
:10016000F50F0008F50F0008F50F0008F50F00085F
:10017000F50F0008F50F0008F50F0008F50F00084F
:04018000F50F00086F
:1001880053B94AB9002908BF00281CBF4FF0FF31F6
:100198004FF0FF3000F00CB8ADF1080C6DE904CE5B
:1001A80000F008F8DDF804E0DDE9022304B0704748
:1001B800704700BF2DE9F0478C468E46089E1546CD
:1001C80004461946002B40F0D080724547D9B2FA50
:1001D80082F74FB1C7F120030EFA07FC20FA03F3A8
:1001E800BD4043EA0C0CBC404FEA154EA8B2BCFB1C
:1001F800FEF8230C0EFB18CC08FB00F943EA0C436D
:10020800994528D9EB1808F1FF3204D2994502D94B
:10021800A8F102022B44A3EB0903A4B2B3FBFEFC32
:100228000EFB1C330CFB00F044EA0344A04214D933
:100238002C190CF1FF3304D2A04202D9ACF102030D
:100248002C44241A43EA02401EB1FC4000233460C7
:100258007360BDE8F0874246DDE76346F1E7002AB0
:1002680079D0B2FA82F3002B3FD01946C1F12003AE
:1002780002FA01F52EFA03F20EFA01FE20FA03F350
:1002880043EA0E034FEA154E00FA01F4B2FBFEFCF6
:10029800AFB20EFB1C201A0C0CFB07F842EA004216
:1002A80090455AD9AA180CF1FF3004D2904502D9CA
:1002B800ACF102002A44A2EB08029BB2B2FBFEFC9E
:1002C8000EFB1C220CFB07F743EA02439F4246D968
:1002D800EB180CF1FF3204D29F4202D9ACF10202B2
:1002E8002B44DB1B42EA004202E0AEEB0203012290
:1002F8004FEA154EAFB2B3FBFEFC200C0EFB1C33CD
:100308000CFB07F840EA034398452AD9EB180CF18F
:10031800FF3004D2984502D9ACF102002B44A3EB7C
:100328000803A4B2B3FBFEFC0EFB1C330CFB07F75F
:1003380044EA0344A74216D92C190CF1FF3304D21E
:10034800A74202D9ACF102032C44E41B43EA004063
:100358000F46114678E71F2188E76046ABE76246FB
:10036800BFE76046DBE76346EFE7734506D916B992
:10037800002108466DE7C6E9000EF9E7B3FA83F7EE
:1003880087B9734501D3824207D8841A6EEB0303F9
:1003980001209C461EB900215BE73846FAE7C6E90A
:1003A800004CF8E7C7F1200CBB4022FA0CF51D43BE
:1003B80020FA0CF12EFA0CF30EFA07FE41EA0E01B0
:1003C8004FEA154900FA07F4B3FBF9F81FFA85FE5E
:1003D80009FB18300B0C08FB0EFA43EA00439A4558
:1003E80002FA07F240D9EB1808F1FF3004D29A4517
:1003F80002D9A8F102002B44A3EB0A0389B2B3FB8C
:10040800F9F809FB183308FB0EFE41EA03418E4553
:100418002CD9691808F1FF3304D28E4502D9A8F106
:100428000203294443EA0040A0FB0298A1EB0E0115
:100438004145CE46434602D306D14C4504D2B9EBDA
:10044800020E68EB05030138002EA4D0B4EB0E02AF
:1004580061EB030101FA0CFC22FA07F34CEA0303EF
:10046800F940C6E9003196E74046C5E74346D9E773
:100478002DE9F84F5E4D5F4B2B605F4C5F4B60483A
:1004880018604FF4B0120321206002F0B4FC286811
:100498004FF480320D2102F0AEFC28680D2102F0E5
:1004A80080FC584A584B2868536011464FF4005353
:1004B800936002F08CFC20684FF480320F2102F028
:1004C8009AFC20680F2102F06CFC504A504B536094
:1004D80011464FF400432068936002F078FC4D48C1
:1004E8004D4FDFF8388102F003FD4D4802F000FD62
:1004F8003B787BB3142400F0FDF8013CFBD1494E56
:10050800346041F2883400F0F5F8013CFBD14649EB
:1005180046483C70D6F800B0DFF8149102F0E8FCC9
:10052800444802F0E5FCCA462546AB4518D13E4989
:10053800414802F0DDFC3668D6B94048404902F02F
:10054800D7FC404802F0D4FC3F4802F0D1FC3F48B9
:1005580002F0CEFC00214FF47A7003F090F9C7E75F
:1005680001355AF8042B3A48294602F0C1FCDCE769
:100578000023184619464FF0FF3559F8042B9542C9
:1005880028BF1546944238BF14460133101841F16C
:1005980000019E42F1D132460023FFF7F1FD2849C0
:1005A8008146264802F0A4FC31462A4802F0A0FC05
:1005B8002946294802F09CFC2146284802F098FC6C
:1005C80009A3D3E90023A9FB0801FFF7D9FDA4EB90
:1005D800050B02460B462248494602F089FC214891
:1005E800594602F085FCAFE7007A030A00000000D4
:1005F80070500020383C0008685000206C500020E3
:10060800703C00085C500020BD06000850500020D7
:10061800710600082A420008F951002000CA9A3BD6
:100628004E420008445000206F42000884420008EF
:100638002002002099420008B7420008E64200085C
:10064800CF42000804430008A4430008BA43000846
:10065800B04200081A4300082E4300084943000826
:10066800644300088943000838B50D4B1B78B3B1C3
:100678000C4D2B789BB10C4C226841F287339A427F
:100688000DD801F0FFFA094B1B682268C01A084B05
:1006980043F8220023680133236000232B7038BD00
:1006A800F9510020F8510020445000204C500020FF
:1006B80020020020094A117801F0FF0361B90849B6
:1006C80008480B6008490B6008490B6008490B7023
:1006D8000123137002F00CBC704700BFF9510020D1
:1006E8004850002006420008445000204050002096
:1006F800F851002070B50E4C0E4D0126267001F001
:10070800C1FA0D4B31461860286802F066FB642078
:1007180003F029F82868002102F05FFB2378002BFA
:10072800FCD14FF4FA70BDE87040002103F0A7B87F
:10073800F85100206C5000204C500020014B1B68E1
:10074800184700BF00000020014B1860704700BF29
:100758000000002030B5044685B00D461022002167
:10076800684603F016F902238DF802302A46044B36
:1007780001932146684602F0CFF805B030BD00BFAE
:100788004507000880B505460E461746984601F00D
:1007980065FE034600F03CFCDFF81890044649F873
:1007A8000030424630463946A84754F8090000F060
:1007B800CBFB00BF08000000034A536823F0020384
:1007C80053600020704700BF002004E008B541686E
:1007D800054883681B680C311BB1984700EAE07034
:1007E80008BD6FF05700F9E7203B0008192810B53D
:1007F80002D90024204610BD044B53F8204020465F
:1008080002F0D7FF0028F5D1F3E700BFB040000899
:10081800084B1A6842F480721A601A6842F400722F
:100828001A601A6842F480621A60034B034A1A601D
:10083800704700BF003C02402C0000200024F40058
:10084800014B036000207047184100080648074A1A
:1008580008B5121A002102F0DEFB0548054A0021FE
:10086800121A02F0D8FB08BD7000002000520020C8
:1008780000000010000000100A480B4A0B4908B598
:10088800121A02F0CAFB0A480A4A0B49121A02F065
:10089800C4FB0A480A4A0B49BDE80840121A02F08C
:1008A800BCBB00BF000000206C00002060490008AD
:1008B800000000200000002060490008000000102F
:1008C80000000010CC49000838B505460C4699B11F
:1008D800D1E901230F48096802F00AFBD4E904238F
:1008E800E1680D4802F004FBE1690C4802F000FBE6
:1008F800A1690B4802F0FCFA012D05D1EFF305813F
:100908000848103902F0F4FA21462846BDE8384074
:1009180001F08EBA7A440008AA440008DA440008B4
:10092800EA4400081945000830BFFFF7FDBF00BFC3
:100938002DE9F0410B4EDFF8308006EB0807CC1BA1
:10094800054632460949204603F015F8A0194246E3
:100958000021083C03F01DF82C6707F10800BDE8EA
:10096800F08100BF0000000004000000CC3F000838
:100978002DE9F843324D804632488946174602F041
:10098800B7FAAB6ADE0622D52F4802F0B1FA112475
:10099800AB6A1D0703D52D4802F0AAFA1224284D88
:1009A800AB6A980715D52A4802F0A2FA6E6BAB6AB3
:1009B800190642D52748314602F09AFAB9F1000FD4
:1009C80003D0AB6A23F08003AB62132403E0102446
:1009D800DEE76FF015061A4DAB6ADA0703D51E4835
:1009E80002F086FA1424AB6A9B0603D51B4802F072
:1009F8007FFA1524124B9A6AD50602D49A6A900790
:100A08000AD55B68190507D54146304600F052FA09
:100A180010B180F309880224094B9A6A920642BFF2
:100A28005A6A22F400525A629A6A42F0FF029A62A3
:100A380000233B702046BDE8F8836FF01506C4E735
:100A480000ED00E02D450008444500087845000801
:100A58008C450008A5450008BC450008DC45000891
:100A680010B51D4C1D4802F043FAA36A990130D510
:100A78001B4802F03DFA1E20A36ADA0103D5194883
:100A880002F036FA1F20144CA36A1B0303D516483C
:100A980002F02EFA2120A36A590303D5134802F065
:100AA80027FA22200C4CA36A9A0303D5104802F0B7
:100AB8001FFA2320A36ADB0303D50E4802F018FAB5
:100AC8002420054A936A6FEA03436FEA134393624B
:100AD80010BD1D20D0E700BF00ED00E00C46000867
:100AE80025460008394600085446000873460008A1
:100AF80099460008B446000870B5244C06462448B8
:100B08000D4602F0F5F9A36AD90435D5214802F05B
:100B1800EFF91720A36A1A0503D51F4802F0E8F970
:100B280018201A4CA36A9B050FD51C4802F0E0F95F
:100B3800A16BA36A180407D5194802F0D9F91EB1A8
:100B4800A36A23F40043A3621920104CA36A590531
:100B580003D5144802F0CCF91A20A36ADA050DD59A
:100B6800114802F0C5F91B20084A936A43F47F43F1
:100B7800936200232B7070BD1620CBE7A36A9B04F9
:100B8800F2D50A4802F0B4F91C20EDE700ED00E0C8
:100B9800E0460008F74600087845000809470008BD
:100BA800234700083947000855470008DC45000876
:100BB8002DE9F0415D4B5F688AB00446C7F308062B
:100BC800002585F31188BFF36F8F02F07F43B3F1DF
:100BD8007F4F06D102F00C03082B13D1544802F0C2
:100BE80087F900252C464FF00008F31E8DF8078082
:100BF800092B00F28C80DFE803F00A80847C8A8A63
:100C08008A8A8A8810074CBF0C460125EBE74948B9
:100C1800464E02F06DF98DF80780F36A9A0704D5FD
:100C2800454802F065F900232AE0F36A002B01DA4F
:100C38004248F6E7F36A5B00F5D5414802F058F9F7
:100C48007369A26943F480737361BFF34F8FBFF375
:100C58006F8F32F8023C726922F480727261BFF3BE
:100C68004F8FBFF36F8F03F47F42B2F55F4F27D1E9
:100C7800DBB2022B24D12168324802F039F923680B
:100C88009DF80720CAB902AE04F120072068616800
:100C9800324603C20834BC421646F7D1099A002DE1
:100CA80041D0C2F3080121B96FEA52226FEA422209
:100CB800099202A91846FFF707FE0AB0BDE8F081BD
:100CC8001A4B9A6AD2B232B10DF1070201212046BD
:100CD800FFF74EFE0FE09A6A12F47F4F05D00DF130
:100CE80007010120FFF708FF05E09B6AB3F5803F85
:100CF80099D3FFF7B5FE0346C2E70DF107020021BD
:100D0800E5E70DF107010020ECE70F4889E70F4BF5
:100D18000F49104817F4F87FA6F1100208BF1946CA
:100D280002F0E6F87FE76FF30802C1E700ED00E0A4
:100D38009C470008C8470008E04700080248000828
:100D480011480008314800084E4800086E4700085E
:100D58008347000873480008044B5A6942F01002A0
:100D68005A615A6922F008025A61704700ED00E0A2
:100D7800EFF30880EFF3098101B57246FFF718FF1A
:100D880001BD00BF0A4880F30888102080F311884D
:100D980008484FF40461401880F30988EFF3148081
:100DA8000221084380F31488BFF36F8F00F04AF8DC
:100DB800C05F0020005200201EF0040F0CBFEFF3AC
:100DC8000880EFF30980816911F8021C0229FFD01D
:100DD80001B5724602F023F901BD00BF40B20028F8
:100DE80007DB044A4109012300F01F00834042F851
:100DF8002130704700E100E040B20028A8BF00F1B0
:100E0800604001F10101B8BF064B4FEA0111ACBFC8
:100E180000F5614000F00F00C9B2B4BF195480F862
:100E28000013704714ED00E0044B054A23F07F03DC
:100E38009360BFF34F8FBFF36F8F704700000008B8
:100E480000ED00E008B5FFF7EFFF0B4AD2F8883055
:100E580023F47003C2F88830EFF3148323F00403FB
:100E680083F31488BFF36F8FFFF7F0FCFFF704FDDF
:100E780000F0B0F801F0A4F800ED00E042F8203CE2
:100E8800009B42F81C3C0A49019B42F8183C029B13
:100E980042F8143C21F001014FF0807342F8043C01
:100EA80042F8081C0023203A02654367704700BFD8
:100EB8008D070008094A0346906870B113F1160FB0
:100EC800006E05D0A0F14002934205D3834203D2BD
:100ED800814228BF0020704700207047CC51002075
:100EE80008B515460B4A0C4B9060026F1A600E4607
:100EF80000F0A0F82C4686F309880020034B984799
:100F08002046002100220023014C20474B300008D6
:100F18008D070008CC51002024510020014B1022DD
:100F28001A61704700ED00E0054B5A699B689A42C8
:100F38001FBF044A536843F080535360704700BF93
:100F4800CC51002000ED00E0084B9B6883420BD198
:100F5800EFF3058343B1064B5A6842F080525A605A
:100F68005A6A22F400425A6201F07EBACC5100203B
:100F780000ED00E014498A684FF030001044EFF3A8
:100F8800098C80E8F01F102080F31288BFF36F8F60
:100F98000E4F4FF000664A698A603E60106F0C4C35
:100FA8002060506F0023536780F3118804B5104602
:100FB80000F040F8BDE8044002F1300090E8F01F6E
:100FC8008CF3098870470000CC51002004ED00E044
:100FD80024510020044800231021C2180133512B4A
:100FE80082F80013F9D1704700E100E008B5EFF38B
:100FF8000583064A103B02EBC30152F833004968E7
:101008008847BDE80840FFF78FBF00BFE03C0008F5
:10101800014800687047000024510020024B034A31
:101028000348012100F076B80000032000000020EA
:1010380018410008036E054A403B1360044B4021E9
:10104800C2E901131046012100F06EB828510020B2
:1010580000000B15084AC2F898000B6823F01F031C
:10106800034343F01003C2F89C308B6843F001033C
:10107800C2F8A030704700BF00ED00E02DE9F04352
:10108800DFF8608085B00E461F4604464FF0000921
:10109800B14523DA6068D8B13FB1411E08421BD17F
:1010A8001F2819D92368194216D12368019301F022
:1010B800DCFFA36803430393D8F89050C5F30725D2
:1010C800D0B2013DA84207D801A9FFF7C3FF421CCF
:1010D80009F101090C34DBE76FF01502104605B081
:1010E800BDE8F08300ED00E0044B0522C3F894202E
:1010F800BFF34F8FBFF36F8F704700BF00ED00E065
:10110800BFF35F8F024B0022C3F89420704700BFE3
:1011180000ED00E010B5034C01232278FFF7AEFF85
:10112800207010BDFA51002008B50B4A0023127830
:10113800FFF7A4FF10F1160F07D0084A0021D2F8D4
:101148009030C3F30723984200DB08BDC2F898002B
:10115800C2F8A0100130F2E7FA51002000ED00E0DB
:101168002DE9F0435A4B5B4DD3F890302C68C3F30C
:1011780007239C4285B000F2A780FFF7C1FF00203B
:101188000C2684421AD1544EDFF8449134706846D4
:10119800FFF756FB514C524D80460027B84514D1F5
:1011A80033784B490020D1F89020C2F307229342AC
:1011B800C0F28480FFF798FF002045E0696806FBCD
:1011C8000011FFF747FF0130DBE7009800EB07113C
:1011D8004FEA071CCB682340B3F5000F4DD00AD85F
:1011E800B3F5001F33D0B3F5800F3BD0B3F5801FA4
:1011F80013D00137D2E7B3F1007F47D0B3F1805F56
:101208004DD0B3F1807FF4D150F80C3088684A682B
:1012180001F02BFF40F0887009E050F80C30886826
:101228004A6801F022FF40F0885040F43020CDE9B0
:1012380001230390D9F890303078C3F30723013B9A
:10124800984234D96FF0150005B0BDE8F08350F826
:101258000C3088684A6801F008FF40F0885040F474
:101268000020E4E750F80C3088684A6801F0FDFE79
:1012780040F0C06040F40030D9E750F80C3088687E
:101288004A6801F0F2FE40F08270D0E750F80C3066
:1012980088684A6801F0E9FE40F48020C7E750F802
:1012A8000C3088684A6801F0E0FE2843BFE701A9CE
:1012B800FFF7D0FE3378013333709AE7C1F89830DE
:1012C800C1F8A00001336EE74FF0FF30BCE700BF64
:1012D80000ED00E024410008FA5100200000F0FF72
:1012E8000000021108B5024B1B689847002008BD92
:1012F80034510020034B044A1860937843F00203EA
:1013080093707047345100200400002008B5064946
:10131800064821F00701C1F1005202F5403201F000
:10132800A4FD002008BD00BF076000203851002040
:1013380007B5084A92E80300CDE90001064882682B
:10134800126822B16946904703B05DF804FB6FF05C
:101358005700F9E7CC3F0008203B00081F2809D8B0
:10136800012303FA00F0044B5B6998430CBF01208A
:101378000020704700207047003C014000F01F0229
:101388001F284FF0010303FA02F39DBF024A002011
:1013980053616FF015007047003C0140044B18443E
:1013A800002301338B4200F8012BFADB704700BFA2
:1013B8003C0000202DE9F041104F054600264FF073
:1013C80001086B78F4B2A34201D8BDE8F0812B780C
:1013D8001C442046FFF7C2FF68B12046FFF7CEFF46
:1013E80057F834303BB107EBC40204F01F045168CE
:1013F80008FA04F098470136E3E700BF445100209B
:10140800034660B1B0FA80F2C2F11F02D2B20549B8
:101418008856054A11680B431360FFF7DFBCFF22AB
:10142800F5E700BF3C000020003C0140024A136879
:1014380023EA000313607047003C0140032921D8C8
:10144800DFE801F0020C10190F4B9A6822EA00023B
:101458009A60DA6822EA0002DA6070470A4B9A68F2
:101468000243F5E7084BDA680243DA609A6822EA31
:1014780000029A607047044B9A6802439A60DA68DF
:101488001043D860704700BF003C014030B5B0B190
:10149800B0FA80F3C3F11F03DBB20B4850F83340B6
:1014A8008C4204D100EBC3056D68954205D044B960
:1014B80040F8331000EBC3004260002030BDFF232A
:1014C800EBE76FF00F00F9E74451002060B1B0FA84
:1014D80080F3C3F11F03DBB2044A002142F8331042
:1014E80002EBC30251607047FF23F5E74451002027
:1014F80000F00302043292000F23934043EA900065
:10150800C3B20233054A52F82320030C02EA104002
:1015180093FAA3F3B3FA83F3D84070470038014035
:1015280038B52B4B18680B88C3F30B03162B1446DE
:101538000D464FEA900219D80BB3013B152B1ED864
:10154800DFE803F00D3A0B3A36242C1D1D1D1D1D36
:101558001D1D1D1D1D1D1D1D380D4FF4FA40206059
:101568002B68B3F5805F2BD2002038BD402B25D0E7
:1015780008D823F00402302AF1D0382BEFD06FF0CE
:101588008500F2E7442B07D0A82BF7E700F0D4F842
:101598004FF4A873C00858434008E0E700F0CCF8BF
:1015A8004FF4A873C00858430723B0FBF3F0D6E7FD
:1015B8000848D4E75000D2E70020D0E71046CEE72D
:1015C800C3F313330133B0FBF3F02060CCE700BF63
:1015D8002C00002000127A00162808D8054BC340BA
:1015E80013F0010F0CBF6FF08500002070476FF0FB
:1015F80085007047EA006000F8B54A4E4A4F00F08F
:10160800BBF8304601F026FE00F050FBBB68474AA5
:10161800C3F303131478D35C46FA04F420FA03F5F1
:10162800A54202D2204600F06FFB3B6843F48023BA
:101638003B603B6843F480333B603B4B1A68910343
:10164800FCD55A6F42F001025A675A6F9207FCD5CF
:101658009A6802F00C02082A17D11A68970707D46B
:101668001A6842F001021A602F4A13689807FCD5DD
:101678002D4B9A6822F003029A609A6812F00C0FB8
:10168800FBD19A6822F0F0029A60274F3B6823F05A
:1016980080733B603B689901FCD4254AD2F8043832
:1016A80023F44033C2F80438D2F8043823F07063C6
:1016B80043F0E063C2F8043800F042F83B6843F0B6
:1016C80080733B60184B1A689201FCD59A6822F027
:1016D800F0029A609A6822F0030242F002029A60CD
:1016E8009A6802F00C02082AFAD1A54202D32046D1
:1016F80000F00AFB0F4B1E600B4B9A6822F4E05275
:1017080042F4A0529A609A6822F4604242F400427D
:101718009A60D3F88C2022F08072C3F88C200020C5
:10172800F8BD00BF007A030A003802404F4900089C
:10173800003002402C0000200048704700127A0058
:10174800084B09495A681140084A0A435A605A68BE
:10175800074922F440325A605A681140054A0A4340
:101768005A607047003802400080BFFF08544000AC
:101778000080BFF008544007064B1A6C42F08052B4
:1017880082B01A641B6C03F080530193019B02B072
:10179800704700BF0038024008B5074802F009F852
:1017A80038B10648FFF7A6FD0448FEF7CDFF002034
:1017B80008BD6FF01200FBE7A83C0008C917000835
:1017C8000A2838B5074D044604D1AB680D215B687B
:1017D80028469847AB6803485B68E1B298472046BB
:1017E80038BD00BFA83C00082DE9F843D0F80490A4
:1017F8000746D9F8080090460D461E4601F093FCAE
:10180800B8F5001F044616D12846D9F80840FFF756
:101818006FFE84420CD1294601F085FC0446FFF78F
:1018280005FE2046FFF752FE00212046FFF706FE80
:101838000020BDE8F883B8F5800F20D0B6F1806F9E
:1018480019D0B6F1C06F18D0B6F1007F1AD10226B0
:101858000F493A462046FFF719FEB0B9D9F80810E3
:10186800284601F065FC20463146FFF7E7FD204693
:10187800FFF7C6FDDCE70126EAE70326E8E76FF095
:101888008500D6E76FF01500D3E76FF00F00D0E7BB
:10189800CB330008F8B50C46036941681E68237904
:1018A800012B35D09A1E55425541AD026279022A64
:1018B8009CBF384F37F812C0A27988BF4FF4005C3C
:1018C800042A28D0003B18BF01231B03E279012A10
:1018D8000A680CBF4FF440770027A642D1681DD193
:1018E80021F4B05129430B43D360136923F44053C7
:1018F80043EA0C03136143681A68536923F440737D
:101908003B43536131684068BDE8F84001F033BE9D
:101918004FF4C065CAE74FF48053D7E701F4C061BC
:101928008D421FBFD16821F4C0612943D16042684C
:1019380011680A6902F4405294451FBF0A6922F4EB
:10194800405242EA0C020A6142681168CA6802F40D
:10195800805293421FBFCA6822F480521343CB605F
:1019680043681A68536903F440739F421FBF536961
:1019780023F440733B43536121683368994206D08E
:10198800406801F0F8FD08B923683360F8BD00200D
:10199800FCE700BF00420008F8B543681D6803690A
:1019A8001E680B79012B0C461AD0991E4A424A41EF
:1019B800920294F805C0A779BCF1020F96BF2D4991
:1019C8004FF4005131F81C10042F00D083B1A3F15B
:1019D800030EBEF1010F06D86FF085031846F8BD57
:1019E8004FF4C062E5E70BB1042FF5D04FF48053F4
:1019F800B1F5805F35D0B1F5405F34D000290CBF18
:101A0800012103218C45E7D17BB3002A0CBF0423B5
:101A180003239F42E0D1E37983B1012BDCD1164B3C
:101A28009D420BD0A3F54C439D4207D003F580633C
:101A38009D4203D003F54C439D42CDD1EB6823F47E
:101A48000053EB602146FFF725FF03460028C3D16A
:101A5800EA6842F40052EA6094E8030086E803006A
:101A6800BCE70021CEE70221CCE7002A0CBF032304
:101A78000223CEE700420008001001404FF0E023A7
:101A88000D4A9969126818699B69002908BF1146AF
:101A9800002B08BF134610F4803F084801D1994233
:101AA80005D20168114401604FF0E021096900681E
:101AB8001044C01A704700BFC8510020C45100200C
:101AC800094B102283F82320084B44F2A0121A6015
:101AD800074B002018604FF0E02344F29F125A6130
:101AE800072298611A61704700ED00E0C851002094
:101AF800C4510020684620F007018D4619B5FFF74C
:101B0800BDFF114B1149D3E900420868001942F1A1
:101B18000002C3E900020E4A00230B60D2E900412B
:101B280044F2A013001BB0FBF3F043431B1941F12F
:101B38000001C2E9003100F073FEFFF7F5F9BDE8D6
:101B480019408546704700BF78000020C451002026
:101B5800700000202DE9F041364E89B1421C0AD1AF
:101B68004FF0E022136923F0010313614FF07F4324
:101B78003360BDE8F0813568012806DC00240AE0FE
:101B8800431C3568F8D140F2E53040F2E63398421C
:101B9800A8BF1846441EEFF31187102383F3128859
:101BA800BFF36F8FFFF76AFF23494FF0E023D3F8A5
:101BB80018C0D1E90023801843F10003C1E90003EC
:101BC8001E4B00221A601E4B1A68831A2DD444F249
:101BD800A01E44F29F1814FB0E841C44131AB4FB75
:101BE800FEF440F21A420EFB0433934238BF134608
:101BF800144A934228BF13464FF0E0223360946999
:101C0800013B536100239361A445D1E90032ACEB59
:101C180004000DD20544EB1842F10002C1E900327C
:101C280087F31188BFF36F8FA3E740F21A43E3E706
:101C3800C318F1E7C851002078000020C4510020E3
:101C4800700000202094FF0038B5EFF311851023B1
:101C580083F31288BFF36F8F084B1C68084B1B680F
:101C6800E41AFFF70BFF85F31188BFF36F8F44F277
:101C7800A0132044B0FBF3F038BD00BF780000206B
:101C88007000002038B5EFF31185102383F3128814
:101C9800BFF36F8F044B1C68FFF7F0FE85F31188C4
:101CA800BFF36F8F204438BD7800002008B5134972
:101CB8008B6803F00C03042B1CD0082B1CD14A683A
:101CC8004B68496813F4800314BF0D480D48C1F3ED
:101CD800881118BF002302F03F02A1FB0001FEF7A4
:101CE8004FFA064B5B68C3F3014301335B00B0FB5B
:101CF800F3F008BD0248FCE70248FAE70038024062
:101D080000127A000024F400002800F08180424B81
:101D18001B6803F44043B3F5404F30D103F10F6320
:101D280003F58C53984207D83C4B984209D83C4B52
:101D3800984208D9032300E00523012B38BF01236B
:101D480009E00423F9E7374B98421AD8364B9842F2
:101D58004FF00003F1D8304A126802F44042B2F55D
:101D6800004F28D102F10F6202F5A34290420AD92E
:101D7800002B08BF0523012B38BF01231BE00023DC
:101D8800E9E70223E7E7254A904203D9002B08BF79
:101D98000423F0E7224A904203D9002B08BF03230B
:101DA800E9E7204A904203D9002BE4D1022302E05C
:101DB8001D4A9042DFD8184A126802F44042B2F530
:101DC800804F13D1164A904206D9002B08BF03232F
:101DD800012B38BF012309E0124A904203D9002B96
:101DE800F6D1022302E0104A9042F1D80F490A685E
:101DF80022F00F021A430A600A6802F00F029342A7
:101E080008D0086800F00F00C01A18BF01207047FA
:101E1800012070470020704700700040000E27071F
:101E2800804A5D050087930380C3C901003C0240D6
:101E380038B5EFF31185102383F31288BFF36F8F42
:101E4800064B9C6801F0C8FC85F31188BFF36F8FBF
:101E58002046BDE83840FFF777B800BFCC510020D6
:101E680038B50A4B53F82040013053F82050A542AA
:101E780000D838BD606830B1037EDB0701D401F0BB
:101E880080FC0834F3E723689847FAE7E84100083C
:101E980070B52A4B2A4C2B4D86B0012203201A70AC
:101EA800FFF7DEFF00F032FD0420FFF7D9FF2646DA
:101EB800AE4204F130040FD300F00CFA204CAC42CF
:101EC80026D300F01BFAFEF7D3FA1F4A938923F0B2
:101ED8000103938106B070BD54F80C3C059354F887
:101EE800103C049354F8143C039354F8183C0293A0
:101EF80054F81C3C019354F8203C009354E90A23FD
:101F080054E90C0100F0C2F854F8303C5E65CEE7A5
:101F1800D4E90A23B3F1FF3F08BFB2F1FF3F05D070
:101F280052EA0301206803D101F0C2FC3034C6E74D
:101F38000649183000F0E4FBF8E700BFFB51002029
:101F4800683F0008683F0008000100206738000863
:101F580070B5002386B00122CDE90423134E144D39
:101F680001930F22CDE902321249142303FB0055D5
:101F780006EBC01604464FF4C07000FB04110E4B6C
:101F880000954FF4A072304600F080F8337C0B4A7D
:101F9800EE6023F0040333744FF4046304FB03334B
:101FA80013442C746B6006B070BD00BF8000002025
:101FB800CC510020405A0020E7370008005200208A
:101FC8007FB50020FFF74CFF284B83F30888284C87
:101FD800636943F4007363610025F02384F82230B9
:101FE800E57725766576A57684F82050636A43F40C
:101FF800E0236362FEF7B0FEFEF790FF4FF0FF3379
:10200800A362E362FFF7ACF8FFF708F819481A4C27
:1020180000F088F8FEF7FCFB0120FFF721FF022003
:10202800FFF71EFF00F094F9144B15495C61154B3E
:10203800059301234FF48062CDE90353CDE901559F
:10204800114B0095204600F021F8237C064623F02A
:1020580004032046237401F0DFFB2846FFF778FFCE
:10206800094A31462046FEF73BFF00BF405A002090
:1020780000ED00E08001002000010020CC5100208C
:10208800C05B0020F2480008991E00082DE9F043C3
:10209800073285B022F007020E461F46109981814B
:1020A80000F158037F32C0E916330446002322F0BA
:1020B8003F020421836001743F2A0F98A073C4E98A
:1020C8000633E37306F14009A2F1400805D883F30B
:1020D8001188BFF36F8F084602DFB51829462046DE
:1020E800FEF726FC07300E9B20F00700A066C4E927
:1020F800189802930D9B01932D1A0C9B00932A4666
:102108003B4631462046FEF7B9FE00236365044B83
:102118009B6803B1DB6EE366284605B0BDE8F08333
:10212800CC5100200123037483810023C0E91833B4
:10213800C366014B98607047CC510020094A9368E8
:102148006FF00A019967084958674B6843F0805354
:102158004B60002383F31188BFF36F8F9368986FE8
:10216800704700BFCC51002000ED00E070B590F939
:102178001020037C002A2FDBD9062DD11A4C63F0DE
:102188007F032246037452F8183FE169934207D14E
:10219800C0E900210860E0610FE09942F8D01B68AF
:1021A800002BF5D093F90E6090F90E50AE42F4DD95
:1021B8005968C0E9003108605860A569954200D0A7
:1021C80005B9E568A3681A7CD20606D1DA897F2AA0
:1021D80003D9AA690AB9636170BDAB4202D0284627
:1021E80000F010FA6561F7E7CC51002038B590F996
:1021F8001020037C002A014604DA03F07F030374ED
:1022080001F0F8FA0D4D2A46AB6852F8184F94427F
:1022180000D004B9EC688B4207D01A7CD20604D1EE
:10222800DA897F2A01D9A2692AB1A34202D02046BD
:1022380000F0E8F923466B6138BD00BFCC5100209F
:10224800034648B9EFF3058232B9064A51699268E4
:10225800914201D0FFF772BF83F31188BFF36F8FEC
:10226800704700BFCC51002038B5184CA168E06910
:102278000B68814214BF1A46002249680B605960F6
:10228800A368E1692AB9124AC3E900210B60E36136
:102298000AE092F90E5093F90E00854212DD51685A
:1022A800C3E900210B605360A569094B9D4200D02A
:1022B80005B9E568A3689D4202D0284600F0A2F956
:1022C800656138BD8A42DED01268DBE7CC51002058
:1022D800E4510020EFF31181102383F31288BFF338
:1022E8006F8F054B9A68D37B013BD37381F31188B9
:1022F800BFF36F8F704700BFCC51002070B5EFF36C
:102308001186102383F31288BFF36F8F0F4DAB68CC
:10231800DA7B0132DA732A4652F8184F944200D019
:1023280004B9EC681A7CD20604D1DA897F2A01D96B
:10233800A2692AB19C4202D0204600F063F92346E4
:102348006B613046BDE87040FFF77ABFCC51002082
:10235800024B03F11802C3E906227047CC51002052
:1023680070B5EFF31186102383F31288BFF36F8FD4
:102378001A4CA168E0690B68814214BF1A46002212
:1023880049680B605960A368E1692AB9144AC3E92E
:1023980000210B60E3610AE092F90E5093F90E00F8
:1023A800854216DD5168C3E900210B605360A569B9
:1023B8000B4B9D4200D005B9E568A3689D4202D049
:1023C800284600F01FF965613046BDE87040FFF708
:1023D800B5BE8A42DAD01268D7E700BFCC510020D8
:1023E800E4510020F8B550EA010306460C4603D133
:1023F800FFF7B6FF0020F8BDEFF31187102383F332
:102408001288BFF36F8F124D124BA8681860FFF740
:10241800EDFEA868104923463246183000F070F9DE
:10242800AA68137C43F00403137404463846FFF784
:1024380085FEAB68D3E90A23B3F1004F08BF002A31
:10244800D8D101F094FA201A20EAE070D3E700BF4F
:10245800CC510020EC51002067380008014B9868E7
:10246800704700BFCC5100202DE9F8430446878906
:10247800EFF31186102383F31288BFF36F8F037C69
:10248800190705D586F31188BFF36F8FBDE8F88368
:10249800D90943F008026FD10274A36813B120462A
:1024A80001F0B0F904F1180001F039FAA56D04F152
:1024B8005808A84511D04FF0000975B1284601F019
:1024C800A1F905F1180001F02AFAC5F87890284614
:1024D800FFF74CFEA56DA845EFD1DFF8BC80D8F812
:1024E80008309C4250D1EFF30589B9F1000918BFB3
:1024F8004FF00109D8F81850284A954200D00DB974
:10250800D8F80C50AB4202D0284600F07BF82046A1
:10251800C8F8145000F092FDB9F1000F02D020481D
:10252800FFF700FED8F808309C4230D1EFF305835E
:102538006BBBA289D20711D586F31188BFF36F8FC1
:1025480083F31188BFF36F8F0423184602DFEFF37C
:102558001186102383F31288BFF36F8F3046FFF77D
:10256800EDFDFB0792D5002383F31188BFF36F8F2E
:102578000423184602DF89E703F07F0343F00803CA
:10258800037401F037F988E74FF00009B2E786F3E2
:102598001188BFF36F8FE4E7CC510020E45100208D
:1025A80080010020027C12F01F02034610D10A4964
:1025B80088420DD00949086868B1D9897F2909D8A6
:1025C80093F90E20064B1B689A42B8BF002070474B
:1025D800002070471046704780000020300000201F
:1025E800F0510020044BC01A044BC0105843044B50
:1025F80001221A54704700BF00020020ABAAAAAA01
:10260800FC51002070B50C4B0C4D1E7CFFF7CAFF27
:10261800182303FB06550446284601F080F9084BA9
:1026280000229A553CB1621E28460649BDE8704012
:10263800D31700F065B870BDCC510020000200200F
:10264800FC510020ED25000838B5EFF31185102363
:1026580083F31288BFF36F8F0F4B104A9C68106882
:10266800A04206D1FFF7CEFF85F31188BFF36F8F25
:1026780038BD00211B7C1160094AD35C002BF3D0C4
:102688002046FFF78FFF0028EED0237CDB0601D120
:10269800FFF7EAFD2046E5E7CC510020EC51002089
:1026A800FC510020024B1868984208BF0020704770
:1026B80034000020034B1B680BB9FFF7C5BA002094
:1026C800704700BFF451002030B570B10B4B5B6808
:1026D80098420AD0036843B1D3E90421D0E90445FC
:1026E800121941EB0501C3E90421D0E90032136056
:1026F8005A600023C0E9003330BD00BF3400002019
:10270800B3F1FF3F08BFB2F1FF3F2DE9F84F044690
:10271800994615461F467AD08160EFF31188102339
:1027280083F31288BFF36F8FB9F1000FDFF8E4A0CD
:1027380020DBFFF7BFFFDAE90027013549F100097F
:102748002D1849EBE073C4E90453AD18064643EB72
:1027580007074FF00109FFF7A5FFDFF8BCE0DEF837
:1027680004A00346EBB9C4E900EACAF80040CEF871
:10277800044028E0DAE900126FF001035B1A4FF019
:10278800FF3161EB02025B1B62EB0902012B72F164
:102798000001BCBF01230022C0E904324FF0000948
:1027A800D9E7D3E9041CD4E904208A4270EB0C0B66
:1027B80024DA891A5A686CEB0000C3E90410C4E9EA
:1027C800003214605C60FFF76DFF84420ED1134B3A
:1027D8001B685BB9B9F1000F02D1FFF76BFF064622
:1027E800304601F085F80021FFF7B4F988F3118825
:1027F800BFF36F8F28463946BDE8F88F521A60EB51
:102808000C005345C4E90420ADD01B68AAE7002595
:102818002F46EFE71802002034000020F451002072
:102828002DE9F0470246EFF31185102383F3128850
:10283800BFF36F8FDFF89C90DFF89C80C9F8000029
:10284800FFF730FF00260027D8E900134FEAE27EA1
:1028580050B1D0E9044CA2427EEB0C0A1BDAA41A50
:102868006CEB0E06C0E9044652184FF0000443EB27
:102878000E032046C8E90023C9F8004001F038F8E3
:102888002146FFF767F985F31188BFF36F8FBDE81D
:10289800F047FFF7D9BE611843EBE473C0E904675A
:1028A800C8E90013FFF710FF85F31188BFF36F8F96
:1028B80083689847EFF31185102383F31288BFF3D9
:1028C8006F8FD9F80020121BC9F80020FFF7EAFE25
:1028D800BAE700BFF45100201802002010B5EFF34A
:1028E8001184102383F31288BFF36F8FFFF7E2FE82
:1028F800054A0346D2E90001181841EBE37184F355
:102908001188BFF36F8F10BD18020020014800F036
:10291800EFBA00BFF74800082DE9F04F8BB04368C5
:10292800009383789C078046924640F1F980002501
:102938000878002800F0F68025280AD04B1C01935F
:1029480001354146009B98470028C0F2E380019971
:10295800EEE74E788B1C252E0193F1D00027B9465F
:102968003C460A221F2C22D8A6F12003102B20D87F
:10297800DFE803F0141F1F1A1F1F1F0B1F1F1F1252
:102988001F171F1F090044F00104019B13F8016B76
:102998000193002EE6D13AE044F0020444F0040426
:1029A800F3E744F00804F0E744F01004EDE77F2C67
:1029B80024D8A6F13003092B08D860064EBF02FBC5
:1029C800073702FB093944F02004DEE72A2E0DD12F
:1029D80061065AF8043B53D4002BA7BF44F02004E7
:1029E8009946C3F1000944F02804CEE72E2E05D1FC
:1029F800630600F1978044F04004C6E76C2E2ED0A1
:102A080028D8682E32D06A2E37D04C2E35D0002FD9
:102A180046F02003B8BF24F04004A3F16502BCBF10
:102A2800A4B20027022A01D9612B2BD10AF1070A87
:102A38002AF0070A9C4E0AF1080A0727210760D5E1
:102A480006EB070B34465C455DD1AE1BA219A9EB1A
:102A5800070959E1742E98D07A2E96D0D7E7260622
:102A680048BF44F4007444F080048EE7E00548BF92
:102A780044F4007444F4807487E744F4207484E7D1
:102A88001F4682E7A6F16302122A00F2D880DFE827
:102A980012F013004D00D600D600D600D6004D0027
:102AA800D600D600D600D600D600E800D100D60061
:102AB800D6001A00D600A0005AF8043B8DF8103052
:102AC800012704AEBAE75AF8046B784B002E08BF0A
:102AD8001E4614F0400F14BF39464FF0FF31304600
:102AE80000F05FFF0746A9E7009B41462020984772
:102AF80000280FDB013CA742F6D34D442D1BA1460D
:102B08009EE74C46F7E714F8010B009B41469847AF
:102B1800002898DA98F8023043F0040388F8023065
:102B28004FF0FF3528460BB0BDE8F08F220630D5B0
:102B3800A3052AD50AF1070A2AF007039A46596815
:102B48005AF8080B24F0100B00291FFA8BFB2FDA18
:102B5800404261EB41014BF4806B04AC0A232246EE
:102B680000F02BFF1BF0400FA0EB040200F08E805A
:102B78002BF001049742A4B240F38F80002E40F05E
:102B88008E802BF01104A4B21DE05AF8040BC11773
:102B9800D8E7E0055AF8041B01D40846F7E7A20570
:102BA8004BBF48B208B241F3C01141F3C031C9E785
:102BB80050EA0103D1D16306CFD5002FCDD124F03F
:102BC8001104A4B23A463B4640F206410C4262D197
:102BD80024E024F01004A4B20A2314F0800243D0A5
:102BE80014F400711FBF0AF1070A2AF0070292467F
:102BF800516814BF5AF8080B5AF8040B50EA01023E
:102C08003ED124F0160B62061FFA8BFB3CD5002F31
:102C18003AD124F01704A4B23A463B4621075AD4C5
:102C2800E10705D5994572DDA9EB03039F184B46CB
:102C38009B464AE044F0100410237826CDE7782B11
:102C480004D1C6F1780343F01003C6E7009B414660
:102C5800252098470028FFF65DAF023541463046EB
:102C680070E608230026B8E714F480715AF8040BBC
:102C7800C4D014F400711ABFC0B2114680B2BDE7C7
:102C880024F006041FFA84FB04AC68E713465C468C
:102C9800E10699D52EB90133C0E71346F8E73B465C
:102CA800F6E70233BAE700BF39490008324900089D
:102CB800CDE902324146009B202098470028FFF6C4
:102CC80029AFDDE902320BF1010BD945F0DCEB1A33
:102CD80003EB0B055B46E10627D5CDE902324146F9
:102CE800009B302098470028FFF614AFDDE9023238
:102CF8007EB901352F44791B8A4229DB144604AE7C
:102D08009CBB2A44A9EB03091546914442E01746A7
:102D18008EE7CDE90232023541463046009B98479E
:102D28000028DDE90232E5DAF4E640F206410C4219
:102D3800E0D014F0020F14BF2B20202014F4806F71
:102D4800CDE9023205F10105414618BF2D20E5E71E
:102D5800CDE902324146009B302098470028DDE942
:102D6800023205F10105C6DAD4E6013CCDE90232AA
:102D7800305D009B414698470028DDE90232BFDA02
:102D8800C8E6009B414620209847002805F1010528
:102D9800FFF6C0AEA9EB0503002BF2DCD7E500BFB8
:102DA800704730B4836805699C6974B12A68012347
:102DB8008B401342A44618BF4FF0007330BC08BFC5
:102DC8004FF080634FF0A072604730BC7047836853
:102DD800DB690BB101221847704703691B681B07A1
:102DE80048BF81F0010119B18368DB6808211847E1
:102DF80083681B69FAE7F0B40669876833680124B9
:102E08008C4023EA040333603B6822F48012F0BC50
:102E1800184700EBC100408840087047F8B50346E2
:102E2800FFF7F7FFB0FA80F0C0F11F0003EB800C4A
:102E3800CA00DCF81060171D0C4606328DB256B970
:102E4800012101FA00F0D9680143D960CCF810409B
:102E5800DD539D52F8BDF1000431585AD85303EBA5
:102E6800C0009E52C5805D52F4E7043A2DE9F8434C
:102E7800CC1D114424F0070421F00706A6EB040832
:102E88004FEAD807B7FA87F2C2F12405AD004FF030
:102E980000090735C2F12002ED0804604946A76021
:102EA800C4F80C90920004F1100000F072FDAAB270
:102EB800530043F0010363807B1B9BB204EBC50105
:102EC8005800A4F80090488024F83520A6F802900D
:102ED80024F8083004EBC70329465A8842F0010257
:102EE8005A802046BDE8F843FFF798BF0020704796
:102EF8000FB407B504A951F8040B0191FDF72AFC9A
:102F080003B05DF804EB04B070477047F0B51E4697
:102F180043685C68012067688840C2F3801327EA29
:102F280000078B403B43636090FAA0F7B7FA87F736
:102F3800D4F808C04FF0030E7F000EFA07F72CEA0A
:102F4800070C90FAA0F7B7FA87F7C2F3C1137F000E
:102F5800BB4043EA0C03A36090FAA0F3B3FA83F3EF
:102F6800E7685B000EFA03F327EA030790FAA0F379
:102F7800B3FA83F302F030055B00C2F341229A40B2
:102F88003A43202DE26016D107292CD890FAA0F3F5
:102F9800226A33B3B3FA83F39B000F2101FA03F3D8
:102FA80022EA030290FAA0F3B3FA83F39B0006FA2D
:102FB80003F31343236290FAA0F3B3FA83F322686E
:102FC80090FAA0F003215B00B0FA80F001FA03F355
:102FD80040002D0922EA030385401D432560002097
:102FE800F0BD2B46D8E7030A616A93FAA3F282B1CF
:102FF800B2FA82F292000F2793FAA3F3B3FA83F39B
:1030080007FA02F29B0021EA02029E40164366621A
:10301800D1E72A46EEE700F0BCBC00F0ACBC0146A4
:103028000068FDF751BC08B5FDF77EFCBDE8084017
:10303800FDF77ABF00210120FDF746BC6FF085003F
:10304800704761B662B680F31188BFF36F8F70471F
:1030580072B6002383F31188BFF36F8FBFF34F8FCE
:1030680030BF62B6BFF36F8F7047202809D9B0F11F
:10307800004F08D80138B0FA80F0C0F11F004000B6
:103088007047082070473E20704708B5FEF72AF9B8
:10309800002008BD08B5062201210020FEF77EF9B0
:1030A800002211460620FDF7A7FE01210846072247
:1030B800FEF774F9002211460720FDF79DFE08224D
:1030C80001210220FEF76AF9002211460820FDF7C7
:1030D80093FE092201210320FEF760F90022114620
:1030E8000920FDF789FE0A2201210420FEF756F97E
:1030F800002211460A20FDF77FFE05210846172207
:10310800FEF74CF9002211461720FDF775FE28221C
:1031180006210A20FEF742F9002211462820FDF771
:103128006BFE002008BD01F01F0101208840704798
:1031380000F00302043292000F23934043EA900008
:1031480010B5C3B29B0003F1804303F59C33020C16
:103158009C6892FAA2F2B2FA82F224EA10409140F4
:103168000143996010BD0B88C3F30B0303F57D621F
:10317800C2F30B02782A82B014D803F1804303F516
:103188000E3348681A6802431A600B88C3F30B03AE
:1031980003F1804303F50E3300201B680193019B64
:1031A80002B070476FF08500FAE70B88C3F30B0392
:1031B80003F57D62C2F30B02782A9FBF03F18043B7
:1031C80003F50E3349681A689DBF8A4300201A60C8
:1031D8006FF08500704770B508884A68C0F30B0027
:1031E80094B2C2F30445FEF7F7F9A0B9FF2A11D04B
:1031F80004F18041C2F3415601F50E310136012335
:10320800B3400C68013BAB40120E24EA0303AA400A
:1032180013430B6070BD6FF08500FBE70888C0F3AF
:103228000B0008B500F57D63C3F30B03782B0AD8B0
:1032380000F1804000F50E304B68026893430CBFE4
:103248000220012008BDFEF7C7F900280CBF0220A4
:103258000120F7E7704743685B681B690B60002033
:10326800704743685B68586942400A4042405A6167
:103278000020704743685B68002099617047436885
:103288005B68090499610020704743685B685A6964
:10329800514059610020704730B50369986800B300
:1032A8000024884219D108688CB9DC689860A1426A
:1032B80000D1D860002008602AB19A680A60DA68EC
:1032C800996002B9D96000200FE02846E9E720603C
:1032D800D868814208BFDC60ECE705680446002D29
:1032E800F3D1002AE9D16FF0150030BD12F4003C8B
:1032F800F8B505460C46134642D0960739D550070F
:103308005CD55022D90636D542F4007203F4C06168
:10331800B1F5806F44D0B1F5C06F3ED0B1F5007FF4
:1033280041D013F440372E6912D0706820FA04F1A6
:10333800C9075FBF0121A14001437160BCF1000FC3
:1033480006D0180332D5696801234968A3408B6108
:10335800002321462846FFF7D9FD47B9736823FAA9
:1033680004F2D20741BF0122A240934373600020B8
:10337800F8BD1022C6E79F06C8D542F48062C5E7AB
:10338800D60305D5D00605D4C2F340129202BDE794
:103398003022BBE74FF40072B8E742F4C072C0E7CE
:1033A80042F48072BDE742F08002BAE75903CFD5F4
:1033B8000121A1402846FFF762FFC9E76FF08500A9
:1033C800D6E770B50B690E469968054609B10C68D1
:1033D80001B970BD8A682A4002D04B6830469847C8
:1033E8001CB1236821461C46F2E72346FAE730B5AC
:1033F800036813600579046804EBC504A34202D38B
:103408006FF0010030BD5C798C4203F10803F0D104
:103418000020F7E72DE9F84F044600EBC107002527
:103428004FF00108BC4202D10020BDE8F88FD4F863
:1034380000B01BF0100F21D1656845F02005CBF3D3
:103448004420FDF7D3F9814610B3CBF343160BF0B4
:103458001F0A53462A463146FFF758FD0028E4DB89
:10346800BAF1110F08D1D9F8043029055A6808FAB9
:1034780006F358BF1B0493610834D3E70BF01F030E
:10348800102B03D0112BDAD16568D8E73025D6E7A1
:103498006FF01200C9E74368C1F34B101B6801F0D5
:1034A8001F01C05801238B400340003B18BF012374
:1034B80013700020704710B54368C1F34B101A68A9
:1034C80001F01F01845801238B40234383500020BF
:1034D80010BD10B54368C1F34B14186801F01F0103
:1034E800235801228A4023EA02032350002010BDFA
:1034F80038B504460D46FFF7DEFF29462046FFF79C
:10350800E8FF002038BD82B003680193019B43683F
:103518000193019B02B0704708B5436818680268B8
:103528000368C2F3C00203F0010342EA43020368DE
:103538009B07036848BF42F004025907036848BF65
:1035480042F02002DB0542BF6FF4807342F00802AC
:103558000360D10701D5FFF7D6FF930701D5FFF721
:10356800D2FF510701D5FFF7CEFF930601D5FFF72C
:10357800CAFF104608BD37B5034604680D4619B999
:103588006FF0150003B030BD406819698368DB68C7
:1035980003B301AA98470028F4DBE368019923F4F0
:1035A80000431920E360AA00AB0FA1FB0001FCF760
:1035B800E7FD6422B0FBF2F102FB11031B01323379
:1035C800B3FBF2F303EB01130F2BD9D99BB2A36022
:1035D8000020D7E76FF05700D4E708B543681868AC
:1035E80003681A0701D5FFF78EFF03689B0643BFE0
:1035F80043680B7000204FF0FF3008BD10B54368DA
:103608001B6810201A681206FCD5EFF3118280F3AC
:103618001288BFF36F8F1C68240604D482F31188C4
:10362800BFF36F8FEEE7596082F31188BFF36F8F96
:1036380010BDF7B5446805466068216983681B6852
:10364800002B40D0984700283BDB606A01AA002184
:10365800FFF7CDFE002834DB019B0022197918689A
:10366800FFF7D8FE00282CDB6E682B6934681F68CA
:10367800E36823F40053E360B06800F09AF828B3D5
:10368800D6E902018368DB6803B1984704F10C03AB
:1036980053E8003F43F00C0304F10C0141E8003209
:1036A800002AF3D139462846FEF7F4F888B9337E64
:1036B8001BB1636943F008036361E36843F4005393
:1036C800E36003B0F0BD6FF05700FAE76FF0120047
:1036D800F7E76FF01500F4E703691B681B680B60D8
:1036E80043681B68DB6803F4C063B3F5806F2FD0B1
:1036F800A3F5C06CDCF1000343EB0C030B714368CA
:103708001B681B6903F44053B3F5805F22D0B3F5FF
:10371800405F21D0002B0CBF012303234B7143686A
:103728001B68DA68DB68D20403F4C06316D5002B83
:103738000CBF042303238B7143681B685B6903F484
:103748004073A3F5407253425341CB710020704738
:103758000223D3E70023E1E70223DFE7002B0CBFB6
:1037680003230223E7E738B5044648B1FEF78AFA8F
:10377800A82305465C43FEF785FA431BA342FAD308
:1037880038BD10B5436904463BB90020E268537858
:1037980043F001035370404210BD98470028F4D00D
:1037A8000028B8BF4042E368FF28A8BFFF20187070
:1037B800ECE740B1C368587810F001001EBF1878D4
:1037C800B0FA80F040097047EFF31183102383F3B8
:1037D8001288BFF36F8FFEE708B5FFF7F5FF08B54E
:1037E8001024EFF3118384F31288BFF36F8FFFF770
:1037F8002FFCF6E7D0E9003213605A600023C0E9D5
:103808000033704708B5FFF7F5FF037C23F0020388
:1038180003740023836008BD10B5EFF311841023EF
:1038280083F31288BFF36F8FFEF7A0FC84F311882F
:10383800BFF36F8F10BD08B5037C13F0280F014646
:103848000CD183680BB1FFF7DDFF0B7C23F0040379
:103858000B740846BDE80840FEF788BC08BD10B5E3
:10386800EFF31184102383F31288BFF36F8F183896
:10387800FFF7E1FF84F31188BFF36F8F10BD38B5F0
:1038880005460C46FEF7AEFDB4F1FF3F08BFB5F1A3
:10389800FF3F0AD0C11709304FF00A024FF000036A
:1038A80041F10001FCF76CFC38BD4FF0FF30FBE73D
:1038B80038B50446EFF31185102383F31288BFF35C
:1038C8006F8F037C5B070ED5183000F028F8237C37
:1038D80023F0040320462374FEF748FC2846BDE87D
:1038E8003840FEF7ADBC85F31188BFF36F8F38BD44
:1038F80008B50246FEF7D6FE70B1D0E904319B1A2E
:1039080061EBE272B3F1004F72F1000104DA002AB0
:10391800ACBF1846002008BD6FF00040FBE738B583
:103928000246EFF31185102383F31288BFF36F8FDC
:103938000368CBB1FEF7B6FE04461046FEF7C4FE98
:1039480000224FF000438442C0E9042306D1FEF769
:10395800B1FEFFF7CDFF0021FEF7FCF8002085F34C
:103968001188BFF36F8F38BD6FF01500F7E708B502
:10397800FEF7B4FF08BD0A44914200F1FF3300D1BD
:10398800704710B511F8014B03F8014F9142F9D176
:1039980010BD02440346934200D1704703F8011B4F
:1039A800F9E710B5024601448A42134603D01C7851
:1039B8000132002CF8D1181A10BDF0B5C3F1370741
:1039C8000446FFB203F01F031046082BE6B233D0BB
:1039D800102B3ED06508A40844EA817445EAC175F5
:1039E8002D194FEA910242EB5102290941EA02716D
:1039F8006D1842EB1212290A41EA02616D1842EB76
:103A08001222290C41EA02416D1842EB1242AD180C
:103A180042F10002EC0844EA4274D10804EB840243
:103A2800A6EB4205EDB2092D0CD90134A5F10A0522
:103A380041F10001EDB212E0E40844EA417406F0F5
:103A48000705C908303554EA010200F8015BBCD10A
:103A5800F0BD240944EA017406F00F050909092D8F
:083A680084BFED19EDB2EDE79A
:083A70004CC7FF7F01000000BC
:103A780000000000203B0008C1070008000000000B
:103A8800000000003C3B000800000000383C000833
:103A980000000000543C000800000000703C0008D2
:103AA800000000008C3C0008000000001C3C0008DE
:103AB80000000000003C000800000000E43B000893
:103AC80000000000C83B000800000000AC3B0008F4
:103AD80000000000903B000800000000743B000854
:103AE80000000000583B00089D300008000000005E
:103AF80000000000A83C000800000000C43C0008CA
:103B0800A117000800000000C91A00080000000002
:083B1800151300080000000075
:103B2000B4480008000000009C3F0008640000202A
:103B3000000000000116000800000000C148000855
:103B4000444100088C3F000866000020000000008F
:103B50000000000000000000E0430008D43F00081F
:103B6000683F00084C00002074500020D507000872
:103B700000000000EE430008E83F0008683F00082E
:103B80004E00002084500020D507000800000000EF
:103B9000FC430008FC3F0008683F0008500000207C
:103BA00094500020D5070008000000000A440008D7
:103BB00010400008683F000852000020A450002078
:103BC000D507000800000000184400082440000841
:103BD000683F000854000020B4500020D5070008BA
:103BE000000000002644000838400008683F000834
:103BF00056000020C4500020D50700080000000037
:103C0000344400084C400008683F00085800002079
:103C1000D4500020D50700080000000042440008EE
:103C200060400008683F00085A000020E45000206F
:103C3000D507000800000000504400087440000848
:103C4000683F00085C000020F4500020D507000801
:103C5000000000005E44000888400008683F00083B
:103C60005E00002004510020D5070008000000007D
:103C70006C4400089C400008683F00086000002079
:103C800014510020D50700080000000096480008E5
:103C900000000000000000006200002000000000A2
:103CA0003913000800000000D2480008484100080D
:103CB000B83F000868000020140000203B360008D0
:103CC00000000000E248000898410008B83F0008E2
:103CD0006A000020200000203B36000800000000A1
:103CE000000000003D300008000000003D300008EA
:103CF000000000003D300008000000003D300008DA
:103D0000000000003D300008000000003D300008C9
:103D10004D490008BD1300084B490008BD130008B9
:103D200049490008BD13000847490008BD130008B1
:103D300045490008BD130008000000003D300008A0
:103D4000000000003D300008000000003D30000889
:103D5000000000003D300008000000003D30000879
:103D6000000000003D300008000000003D30000869
:103D7000000000003D300008000000003D30000859
:103D8000000000003D300008000000003D30000849
:103D9000000000003D30000843490008BD13000842
:103DA000000000003D300008000000003D30000829
:103DB000000000003D300008000000003D30000819
:103DC000000000003D300008000000003D30000809
:103DD000000000003D300008000000003D300008F9
:103DE000000000003D300008000000003D300008E9
:103DF000000000003D300008000000003D300008D9
:103E0000000000003D300008000000003D300008C8
:103E1000000000003D300008000000003D300008B8
:103E200041490008BD130008000000003D300008B3
:103E3000000000003D300008000000003D30000898
:103E4000000000003D300008000000003D30000888
:103E5000000000003D300008000000003D30000878
:103E6000000000003D300008000000003D30000868
:103E7000000000003D300008000000003D30000858
:103E8000000000003D300008000000003D30000848
:103E9000000000003D300008000000003D30000838
:103EA000000000003D300008000000003D30000828
:103EB000000000003D300008000000003D30000818
:103EC000000000003D300008000000003D30000808
:103ED000000000003D300008000000003D300008F8
:103EE000000000003D300008000000003D300008E8
:103EF000000000003D300008000000003D300008D8
:103F0000000000003D300008000000003D300008C7
:103F1000000000003D300008000000003D300008B7
:103F2000000000003D300008000000003D300008A7
:103F3000000000003D300008000000003D30000897
:103F4000000000003D300008000000003D30000887
:103F5000000000003D300008000000003D30000877
:083F6000000000003D300008E4
:103F6800F53200085F3200086B3200087D32000825
:103F78008732000893320008F1170008A1320008C0
:043F88000000000035
:103F8C009F340008BF340008DB340008F934000803
:103F9C006F310008B331000800000000291500083B
:0C3FAC002532000800000000DF31000892
:103FB800E33500080536000821350008A119000876
:043FC800E1360008D6
:103FCC004400000000400000FFFF000000280240F9
:103FDC000A0000003000000000040000FFFF000099
:103FEC000024024009000000300000000002000024
:103FFC00FFFF00000020024008000000300000001D
:10400C0000010000FFFF0000001C02400700000040
:10401C003000000080000000FFFF0000001802408C
:10402C00060000003000000040000000FFFF000010
:10403C0000140240050000003000000020000000C9
:10404C00FFFF0000001002400400000030000000E0
:10405C0010000000FFFF0000000C024003000000F5
:10406C003000000008000000FFFF000000080240C4
:10407C00020000003000000004000000FFFF000000
:10408C0000040240010000003000000002000000AB
:10409C00FFFF0000000002400000000030000000A4
:1040AC0001000000703C0008543C0008383C00083B
:1040BC001C3C0008003C0008E43B0008C83B00081E
:1040CC00AC3B0008903B0008743B0008583B0008D0
:1040DC0000000000000000000000000000000000D4
:1040EC0000000000000000000000000000000000C4
:1040FC0000000000000000000000000000000000B4
:10410C000000000000000000000000000000002083
:10411C000000000000000B06020000002C4100080B
:10412C000000000887480008280002060000002054
:10413C008F48000822000B11003802400048004054
:10414C00203B00083C3B00081204000070410008B2
:10415C000100000000000000000000000000000052
:10416C007841000840000000000004008041000875
:10417C000100000088410008020000000707000051
:10418C00000200002707000000000000001401409E
:10419C00203B00083C3B000885040000C04100089F
:1041AC000100000000000000000000000000000002
:1041BC00C84100084400000020000000D041000865
:1041CC0001000000D841000802000000C80D0000EA
:1041DC0000020000280D000000000000783A0008E2
:1041EC00783A0008103B0008183B0008203B0008F8
:1041FC00203B00080010000000300A5374617274F8
:10420C00696E6720353030302D73616D706C6520B0
:10421C0062656E63686D61726B2E2E2E0A003530EE
:10422C0030302D53616D706C6520332D5061746886
:10423C002042656E63686D61726B205265616479B2
:10424C000A00507265737320626C75652055534576
:10425C005220627574746F6E20746F207374617267
:10426C00740A00504154485F425F424F41524433FC
:10427C005F5A4550485952000A3D3D3D3D3D204353
:10428C005356202573203D3D3D3D3D0A0073616D25
:10429C00706C652C6C6174656E63795F6379636CAB
:1042AC0065730A0025752C25750A003D3D3D3D3D85
:1042BC0020454E4420435356202573203D3D3D3D23
:1042CC003D0A00504154482042202D20426F61721B
:1042DC006433205A6570687972000A3D3D3D3D3D5E
:1042EC002046494E414C20524553554C5420257381
:1042FC00203D3D3D3D3D0A004E6F2073616D706C5D
:10430C0065732063617074757265642E0A00536165
:10431C006D706C6573202020202020203A2025759C
:10432C000A004D696E204C6174656E637920202003
:10433C003A202575206379636C65730A004D6178AA
:10434C00204C6174656E63792020203A20257520FD
:10435C006379636C65730A00417667204C61746500
:10436C006E63792020203A202575206379636C6573
:10437C00732028256C6C75206E73290A004C6174AF
:10438C00656E63792052616E6765203A2025752031
:10439C006379636C65730A000A42656E63686D61CC
:1043AC00726B2066696E69736865642E0A005072C0
:1043BC0065737320626C7565205553455220627588
:1043CC0074746F6E20746F2072756E2061676169F2
:1043DC006E2E0A006770696F4034303032323830DC
:1043EC0030006770696F4034303032323430300016
:1043FC006770696F40343030323230303000677063
:10440C00696F403430303231633030006770696F1F
:10441C00403430303231383030006770696F40349E
:10442C0030303231343030006770696F40343030A6
:10443C003231303030006770696F40343030323098
:10444C00633030006770696F403430303230383050
:10445C0030006770696F40343030323034303000A7
:10446C006770696F40343030323030303000723029
:10447C002F61313A20203078253038782020723165
:10448C002F61323A20203078253038782020723253
:10449C002F61333A20203078253038780A00723377
:1044AC002F61343A20203078253038782072313220
:1044BC002F69703A202030782530387820723134CA
:1044CC002F6C723A20203078253038780A0020780A
:1044DC007073723A20203078253038780A004661A3
:1044EC00756C74696E6720696E7374727563746928
:1044FC006F6E206164647265737320287231352F7E
:10450C007063293A203078253038780A00556E6867
:10451C00616E646C6564204952516E3A2025640AC0
:10452C00002A2A2A2A2A204D5055204641554C54FF
:10453C00202A2A2A2A2A0A002020537461636B69D4
:10454C006E67206572726F722028636F6E74657867
:10455C00742061726561206D6967687420626520E2
:10456C006E6F742076616C6964290A002020556E88
:10457C00737461636B696E67206572726F720A0087
:10458C002020446174612041636365737320566914
:10459C006F6C6174696F6E0A0020204D4D4641525C
:1045AC0020416464726573733A20307825780A0070
:1045BC002020496E737472756374696F6E20416349
:1045CC00636573732056696F6C6174696F6E0A0052
:1045DC002020466C6F6174696E672D706F696E7404
:1045EC00206C617A792073746174652070726573C4
:1045FC006572766174696F6E206572726F720A00F3
:10460C002A2A2A2A2A205553414745204641554CEF
:10461C0054202A2A2A2A2A0A0020204469766973FF
:10462C00696F6E206279207A65726F0A00202055BE
:10463C006E616C69676E6564206D656D6F72792053
:10464C006163636573730A0020204E6F20636F7083
:10465C00726F636573736F7220696E7374727563B6
:10466C0074696F6E730A002020496C6C6567616C0D
:10467C00206C6F6164206F66204558435F5245542F
:10468C0055524E20696E746F2050430A0020204909
:10469C006C6C6567616C20757365206F662074683F
:1046AC006520455053520A002020417474656D708A
:1046BC007420746F206578656375746520756E64FD
:1046CC006566696E656420696E737472756374696E
:1046DC006F6E0A002A2A2A2A2A2042555320464164
:1046EC00554C54202A2A2A2A2A0A00202053746165
:1046FC00636B696E67206572726F720A00202050BE
:10470C0072656369736520646174612062757320DE
:10471C006572726F720A0020204246415220416439
:10472C0064726573733A20307825780A002020492A
:10473C006D70726563697365206461746120627564
:10474C0073206572726F720A002020496E73747246
:10475C00756374696F6E20627573206572726F7207
:10476C000A005265736572766564204578636570DE
:10477C0074696F6E20280053707572696F757320A1
:10478C00696E7465727275707420284952512000DC
:10479C00535053454C20696E2074687265616420D7
:1047AC006D6F646520646F6573206E6F7420696E25
:1047BC00646963617465205053500A002A2A2A2ABE
:1047CC002A2048415244204641554C54202A2A2A3A
:1047DC002A2A0A002020427573206661756C7420A9
:1047EC006F6E20766563746F72207461626C6520E5
:1047FC00726561640A0020204465627567206576E5
:10480C00656E740A0020204661756C7420657363B4
:10481C00616C6174696F6E20287365652062656CCC
:10482C006F77290A00415243485F4558434550541D
:10483C00207769746820726561736F6E2025780A21
:10484C000A002A2A2A2A2A204465627567206D6F7D
:10485C006E69746F7220657863657074696F6E2011
:10486C002A2A2A2A2A0A002A2A2A2A2A20257320B6
:10487C00256429202A2A2A2A2A0A00464C41534810
:10488C005F30005352414D5F3000696E7465727237
:10489C007570742D636F6E74726F6C6C65724034CE
:1048AC003030313363303000726363403430303237
:1048BC00333830300072657365742D636F6E7472AB
:1048CC006F6C6C65720073657269616C403430306A
:1048DC0030343830300073657269616C403430307C
:1048EC003131343030006D61696E002A2A2A204241
:1048FC006F6F74696E67205A6570687972204F53B8
:10490C00206275696C642076342E332E302D393646
:10491C0030392D6731383633323034656461626238
:10492C00202A2A2A0A00286E756C6C29002A666CCB
:10493C006F61742A000A06050504010301020101D6
:10494C000100010000000000000000010203040649
:04495C00070809003F
:10496000F52E000800000000933000080000000051
:10497000000000001800002000C201000001030038
:104980002400002000C20100000103000024F40004
:10499000C80000003400002034000020FFFFFFFFAB
:0C49A000FFFFFFFFFFFFFFFFFFFFFFFF17
:1049AC0000000000000000000000000000000000FB
:1049BC0000000000000000000000000000000000EB
:0449CC0015E015E0FD
:0400000508000D8D55
:00000001FF
